{
  "contractName": "AssetTracker",
  "abi": [
    {
      "anonymous": false,
      "inputs": [
        {
          "indexed": false,
          "internalType": "uint256",
          "name": "id",
          "type": "uint256"
        },
        {
          "indexed": false,
          "internalType": "string",
          "name": "currentPosition",
          "type": "string"
        },
        {
          "indexed": false,
          "internalType": "string",
          "name": "status",
          "type": "string"
        },
        {
          "indexed": false,
          "internalType": "uint256",
          "name": "verified",
          "type": "uint256"
        }
      ],
      "name": "BloodCreate",
      "type": "event"
    },
    {
      "anonymous": false,
      "inputs": [
        {
          "indexed": false,
          "internalType": "uint256",
          "name": "id",
          "type": "uint256"
        },
        {
          "indexed": false,
          "internalType": "string",
          "name": "newOwner",
          "type": "string"
        },
        {
          "indexed": false,
          "internalType": "uint256",
          "name": "verified",
          "type": "uint256"
        },
        {
          "indexed": false,
          "internalType": "string",
          "name": "status",
          "type": "string"
        }
      ],
      "name": "BloodTransfer",
      "type": "event"
    },
    {
      "constant": true,
      "inputs": [
        {
          "internalType": "uint256",
          "name": "",
          "type": "uint256"
        }
      ],
      "name": "BloodStore",
      "outputs": [
        {
          "internalType": "uint256",
          "name": "id",
          "type": "uint256"
        },
        {
          "internalType": "string",
          "name": "uniqueid",
          "type": "string"
        },
        {
          "internalType": "string",
          "name": "batch",
          "type": "string"
        },
        {
          "internalType": "string",
          "name": "aadhar",
          "type": "string"
        },
        {
          "internalType": "string",
          "name": "currentPosition",
          "type": "string"
        },
        {
          "internalType": "string",
          "name": "blood_group",
          "type": "string"
        },
        {
          "internalType": "string",
          "name": "expiry_date",
          "type": "string"
        },
        {
          "internalType": "uint256",
          "name": "verified",
          "type": "uint256"
        },
        {
          "internalType": "uint256",
          "name": "statusCount",
          "type": "uint256"
        }
      ],
      "payable": false,
      "stateMutability": "view",
      "type": "function"
    },
    {
      "constant": true,
      "inputs": [
        {
          "internalType": "address",
          "name": "",
          "type": "address"
        }
      ],
      "name": "LoginStore",
      "outputs": [
        {
          "internalType": "address payable",
          "name": "user_address",
          "type": "address"
        },
        {
          "internalType": "string",
          "name": "email",
          "type": "string"
        },
        {
          "internalType": "string",
          "name": "password",
          "type": "string"
        },
        {
          "internalType": "string",
          "name": "name",
          "type": "string"
        },
        {
          "internalType": "string",
          "name": "typeID",
          "type": "string"
        },
        {
          "internalType": "string",
          "name": "addressUser",
          "type": "string"
        },
        {
          "internalType": "string",
          "name": "phone",
          "type": "string"
        },
        {
          "internalType": "string",
          "name": "location",
          "type": "string"
        }
      ],
      "payable": false,
      "stateMutability": "view",
      "type": "function"
    },
    {
      "constant": true,
      "inputs": [],
      "name": "bloodCount",
      "outputs": [
        {
          "internalType": "uint256",
          "name": "",
          "type": "uint256"
        }
      ],
      "payable": false,
      "stateMutability": "view",
      "type": "function"
    },
    {
      "constant": true,
      "inputs": [],
      "name": "userCount",
      "outputs": [
        {
          "internalType": "uint256",
          "name": "",
          "type": "uint256"
        }
      ],
      "payable": false,
      "stateMutability": "view",
      "type": "function"
    },
    {
      "constant": false,
      "inputs": [
        {
          "internalType": "string",
          "name": "_uniqueid",
          "type": "string"
        },
        {
          "internalType": "string",
          "name": "_batch",
          "type": "string"
        },
        {
          "internalType": "string",
          "name": "_aadhar",
          "type": "string"
        },
        {
          "internalType": "string",
          "name": "_currentPosition",
          "type": "string"
        },
        {
          "internalType": "string",
          "name": "_blood_group",
          "type": "string"
        },
        {
          "internalType": "string",
          "name": "_expiry_date",
          "type": "string"
        },
        {
          "internalType": "string",
          "name": "_status",
          "type": "string"
        }
      ],
      "name": "createAsset",
      "outputs": [
        {
          "internalType": "uint256",
          "name": "",
          "type": "uint256"
        }
      ],
      "payable": false,
      "stateMutability": "nonpayable",
      "type": "function"
    },
    {
      "constant": true,
      "inputs": [
        {
          "internalType": "uint256",
          "name": "_id",
          "type": "uint256"
        }
      ],
      "name": "getBlood",
      "outputs": [
        {
          "internalType": "string",
          "name": "",
          "type": "string"
        },
        {
          "internalType": "string",
          "name": "",
          "type": "string"
        },
        {
          "internalType": "string",
          "name": "",
          "type": "string"
        },
        {
          "internalType": "string",
          "name": "",
          "type": "string"
        },
        {
          "internalType": "string",
          "name": "",
          "type": "string"
        },
        {
          "internalType": "string",
          "name": "",
          "type": "string"
        }
      ],
      "payable": false,
      "stateMutability": "view",
      "type": "function"
    },
    {
      "constant": true,
      "inputs": [
        {
          "internalType": "uint256",
          "name": "_id",
          "type": "uint256"
        }
      ],
      "name": "getBlood2",
      "outputs": [
        {
          "internalType": "uint256",
          "name": "",
          "type": "uint256"
        },
        {
          "internalType": "uint256",
          "name": "",
          "type": "uint256"
        }
      ],
      "payable": false,
      "stateMutability": "view",
      "type": "function"
    },
    {
      "constant": false,
      "inputs": [
        {
          "internalType": "uint256",
          "name": "_id",
          "type": "uint256"
        },
        {
          "internalType": "string",
          "name": "_oldUser",
          "type": "string"
        },
        {
          "internalType": "uint256",
          "name": "verified",
          "type": "uint256"
        },
        {
          "internalType": "string",
          "name": "_status",
          "type": "string"
        },
        {
          "internalType": "string",
          "name": "_newUser",
          "type": "string"
        }
      ],
      "name": "transferAsset",
      "outputs": [
        {
          "internalType": "string",
          "name": "",
          "type": "string"
        }
      ],
      "payable": false,
      "stateMutability": "nonpayable",
      "type": "function"
    },
    {
      "constant": true,
      "inputs": [],
      "name": "getBloodCount",
      "outputs": [
        {
          "internalType": "uint256",
          "name": "",
          "type": "uint256"
        }
      ],
      "payable": false,
      "stateMutability": "view",
      "type": "function"
    },
    {
      "constant": true,
      "inputs": [
        {
          "internalType": "uint256",
          "name": "_id",
          "type": "uint256"
        },
        {
          "internalType": "uint256",
          "name": "_statusCount",
          "type": "uint256"
        }
      ],
      "name": "getStatus",
      "outputs": [
        {
          "internalType": "uint256",
          "name": "",
          "type": "uint256"
        },
        {
          "internalType": "string",
          "name": "",
          "type": "string"
        },
        {
          "internalType": "string",
          "name": "",
          "type": "string"
        },
        {
          "internalType": "uint256",
          "name": "",
          "type": "uint256"
        }
      ],
      "payable": false,
      "stateMutability": "view",
      "type": "function"
    },
    {
      "constant": true,
      "inputs": [
        {
          "internalType": "address payable",
          "name": "user_address",
          "type": "address"
        }
      ],
      "name": "getIdentity",
      "outputs": [
        {
          "internalType": "bool",
          "name": "",
          "type": "bool"
        }
      ],
      "payable": false,
      "stateMutability": "view",
      "type": "function"
    },
    {
      "constant": false,
      "inputs": [
        {
          "internalType": "string",
          "name": "_name",
          "type": "string"
        },
        {
          "internalType": "address payable",
          "name": "user_address",
          "type": "address"
        },
        {
          "internalType": "string",
          "name": "_email",
          "type": "string"
        },
        {
          "internalType": "string",
          "name": "_password",
          "type": "string"
        },
        {
          "internalType": "string",
          "name": "_typeID",
          "type": "string"
        },
        {
          "internalType": "string",
          "name": "_address",
          "type": "string"
        },
        {
          "internalType": "string",
          "name": "_phone",
          "type": "string"
        },
        {
          "internalType": "string",
          "name": "_location",
          "type": "string"
        }
      ],
      "name": "addidentity",
      "outputs": [],
      "payable": false,
      "stateMutability": "nonpayable",
      "type": "function"
    },
    {
      "constant": true,
      "inputs": [
        {
          "internalType": "string",
          "name": "_name",
          "type": "string"
        }
      ],
      "name": "getemail",
      "outputs": [
        {
          "internalType": "string",
          "name": "",
          "type": "string"
        }
      ],
      "payable": false,
      "stateMutability": "view",
      "type": "function"
    },
    {
      "constant": true,
      "inputs": [
        {
          "internalType": "address payable",
          "name": "_add",
          "type": "address"
        },
        {
          "internalType": "string",
          "name": "_email",
          "type": "string"
        },
        {
          "internalType": "string",
          "name": "_password",
          "type": "string"
        }
      ],
      "name": "getLogin",
      "outputs": [
        {
          "internalType": "string",
          "name": "",
          "type": "string"
        },
        {
          "internalType": "string",
          "name": "",
          "type": "string"
        },
        {
          "internalType": "string",
          "name": "",
          "type": "string"
        },
        {
          "internalType": "string",
          "name": "",
          "type": "string"
        },
        {
          "internalType": "string",
          "name": "",
          "type": "string"
        }
      ],
      "payable": false,
      "stateMutability": "view",
      "type": "function"
    },
    {
      "constant": true,
      "inputs": [],
      "name": "getUserCount",
      "outputs": [
        {
          "internalType": "uint256",
          "name": "",
          "type": "uint256"
        }
      ],
      "payable": false,
      "stateMutability": "view",
      "type": "function"
    }
  ],
  "bytecode": "0x60806040526000600155600060045534801561001a57600080fd5b506143048061002a6000396000f3fe608060405234801561001057600080fd5b50600436106100f55760003560e01c80639bc24b5411610097578063b6e857c611610066578063b6e857c614611162578063be3cba0d14611180578063c88b53a51461151b578063e8c67a25146117f3576100f5565b80639bc24b5414610a2b578063a745da6514610da3578063acfabc1114610ece578063b5cb15f714611144576100f5565b806351f650e6116100d357806351f650e6146101bd578063672af74e146101db5780637211dde4146106345780638afd22c314610768576100f5565b806307973ccf146100fa5780632fea7b811461011857806339b67b2814610174575b600080fd5b610102611c59565b6040518082815260200191505060405180910390f35b61015a6004803603602081101561012e57600080fd5b81019080803573ffffffffffffffffffffffffffffffffffffffff169060200190929190505050611c5f565b604051808215151515815260200191505060405180910390f35b6101a06004803603602081101561018a57600080fd5b8101908080359060200190929190505050611ea7565b604051808381526020018281526020019250505060405180910390f35b6101c5611edf565b6040518082815260200191505060405180910390f35b61061e600480360360e08110156101f157600080fd5b810190808035906020019064010000000081111561020e57600080fd5b82018360208201111561022057600080fd5b8035906020019184600183028401116401000000008311171561024257600080fd5b91908080601f016020809104026020016040519081016040528093929190818152602001838380828437600081840152601f19601f820116905080830192505050505050509192919290803590602001906401000000008111156102a557600080fd5b8201836020820111156102b757600080fd5b803590602001918460018302840111640100000000831117156102d957600080fd5b91908080601f016020809104026020016040519081016040528093929190818152602001838380828437600081840152601f19601f8201169050808301925050505050505091929192908035906020019064010000000081111561033c57600080fd5b82018360208201111561034e57600080fd5b8035906020019184600183028401116401000000008311171561037057600080fd5b91908080601f016020809104026020016040519081016040528093929190818152602001838380828437600081840152601f19601f820116905080830192505050505050509192919290803590602001906401000000008111156103d357600080fd5b8201836020820111156103e557600080fd5b8035906020019184600183028401116401000000008311171561040757600080fd5b91908080601f016020809104026020016040519081016040528093929190818152602001838380828437600081840152601f19601f8201169050808301925050505050505091929192908035906020019064010000000081111561046a57600080fd5b82018360208201111561047c57600080fd5b8035906020019184600183028401116401000000008311171561049e57600080fd5b91908080601f016020809104026020016040519081016040528093929190818152602001838380828437600081840152601f19601f8201169050808301925050505050505091929192908035906020019064010000000081111561050157600080fd5b82018360208201111561051357600080fd5b8035906020019184600183028401116401000000008311171561053557600080fd5b91908080601f016020809104026020016040519081016040528093929190818152602001838380828437600081840152601f19601f8201169050808301925050505050505091929192908035906020019064010000000081111561059857600080fd5b8201836020820111156105aa57600080fd5b803590602001918460018302840111640100000000831117156105cc57600080fd5b91908080601f016020809104026020016040519081016040528093929190818152602001838380828437600081840152601f19601f820116905080830192505050505050509192919290505050611ee9565b6040518082815260200191505060405180910390f35b6106ed6004803603602081101561064a57600080fd5b810190808035906020019064010000000081111561066757600080fd5b82018360208201111561067957600080fd5b8035906020019184600183028401116401000000008311171561069b57600080fd5b91908080601f016020809104026020016040519081016040528093929190818152602001838380828437600081840152601f19601f820116905080830192505050505050509192919290505050612225565b6040518080602001828103825283818151815260200191508051906020019080838360005b8381101561072d578082015181840152602081019050610712565b50505050905090810190601f16801561075a5780820380516001836020036101000a031916815260200191505b509250505060405180910390f35b6107946004803603602081101561077e57600080fd5b8101908080359060200190929190505050612330565b6040518080602001806020018060200180602001806020018060200187810387528d818151815260200191508051906020019080838360005b838110156107e85780820151818401526020810190506107cd565b50505050905090810190601f1680156108155780820380516001836020036101000a031916815260200191505b5087810386528c818151815260200191508051906020019080838360005b8381101561084e578082015181840152602081019050610833565b50505050905090810190601f16801561087b5780820380516001836020036101000a031916815260200191505b5087810385528b818151815260200191508051906020019080838360005b838110156108b4578082015181840152602081019050610899565b50505050905090810190601f1680156108e15780820380516001836020036101000a031916815260200191505b5087810384528a818151815260200191508051906020019080838360005b8381101561091a5780820151818401526020810190506108ff565b50505050905090810190601f1680156109475780820380516001836020036101000a031916815260200191505b50878103835289818151815260200191508051906020019080838360005b83811015610980578082015181840152602081019050610965565b50505050905090810190601f1680156109ad5780820380516001836020036101000a031916815260200191505b50878103825288818151815260200191508051906020019080838360005b838110156109e65780820151818401526020810190506109cb565b50505050905090810190601f168015610a135780820380516001836020036101000a031916815260200191505b509c5050505050505050505050505060405180910390f35b610a6d60048036036020811015610a4157600080fd5b81019080803573ffffffffffffffffffffffffffffffffffffffff169060200190929190505050612774565b604051808973ffffffffffffffffffffffffffffffffffffffff1673ffffffffffffffffffffffffffffffffffffffff1681526020018060200180602001806020018060200180602001806020018060200188810388528f818151815260200191508051906020019080838360005b83811015610af7578082015181840152602081019050610adc565b50505050905090810190601f168015610b245780820380516001836020036101000a031916815260200191505b5088810387528e818151815260200191508051906020019080838360005b83811015610b5d578082015181840152602081019050610b42565b50505050905090810190601f168015610b8a5780820380516001836020036101000a031916815260200191505b5088810386528d818151815260200191508051906020019080838360005b83811015610bc3578082015181840152602081019050610ba8565b50505050905090810190601f168015610bf05780820380516001836020036101000a031916815260200191505b5088810385528c818151815260200191508051906020019080838360005b83811015610c29578082015181840152602081019050610c0e565b50505050905090810190601f168015610c565780820380516001836020036101000a031916815260200191505b5088810384528b818151815260200191508051906020019080838360005b83811015610c8f578082015181840152602081019050610c74565b50505050905090810190601f168015610cbc5780820380516001836020036101000a031916815260200191505b5088810383528a818151815260200191508051906020019080838360005b83811015610cf5578082015181840152602081019050610cda565b50505050905090810190601f168015610d225780820380516001836020036101000a031916815260200191505b50888103825289818151815260200191508051906020019080838360005b83811015610d5b578082015181840152602081019050610d40565b50505050905090810190601f168015610d885780820380516001836020036101000a031916815260200191505b509f5050505050505050505050505050505060405180910390f35b610dd960048036036040811015610db957600080fd5b810190808035906020019092919080359060200190929190505050612c04565b604051808581526020018060200180602001848152602001838103835286818151815260200191508051906020019080838360005b83811015610e29578082015181840152602081019050610e0e565b50505050905090810190601f168015610e565780820380516001836020036101000a031916815260200191505b50838103825285818151815260200191508051906020019080838360005b83811015610e8f578082015181840152602081019050610e74565b50505050905090810190601f168015610ebc5780820380516001836020036101000a031916815260200191505b50965050505050505060405180910390f35b6110c9600480360360a0811015610ee457600080fd5b810190808035906020019092919080359060200190640100000000811115610f0b57600080fd5b820183602082011115610f1d57600080fd5b80359060200191846001830284011164010000000083111715610f3f57600080fd5b91908080601f016020809104026020016040519081016040528093929190818152602001838380828437600081840152601f19601f8201169050808301925050505050505091929192908035906020019092919080359060200190640100000000811115610fac57600080fd5b820183602082011115610fbe57600080fd5b80359060200191846001830284011164010000000083111715610fe057600080fd5b91908080601f016020809104026020016040519081016040528093929190818152602001838380828437600081840152601f19601f8201169050808301925050505050505091929192908035906020019064010000000081111561104357600080fd5b82018360208201111561105557600080fd5b8035906020019184600183028401116401000000008311171561107757600080fd5b91908080601f016020809104026020016040519081016040528093929190818152602001838380828437600081840152601f19601f820116905080830192505050505050509192919290505050612dca565b6040518080602001828103825283818151815260200191508051906020019080838360005b838110156111095780820151818401526020810190506110ee565b50505050905090810190601f1680156111365780820380516001836020036101000a031916815260200191505b509250505060405180910390f35b61114c61321f565b6040518082815260200191505060405180910390f35b61116a613229565b6040518082815260200191505060405180910390f35b6112f06004803603606081101561119657600080fd5b81019080803573ffffffffffffffffffffffffffffffffffffffff169060200190929190803590602001906401000000008111156111d357600080fd5b8201836020820111156111e557600080fd5b8035906020019184600183028401116401000000008311171561120757600080fd5b91908080601f016020809104026020016040519081016040528093929190818152602001838380828437600081840152601f19601f8201169050808301925050505050505091929192908035906020019064010000000081111561126a57600080fd5b82018360208201111561127c57600080fd5b8035906020019184600183028401116401000000008311171561129e57600080fd5b91908080601f016020809104026020016040519081016040528093929190818152602001838380828437600081840152601f19601f82011690508083019250505050505050919291929050505061322f565b60405180806020018060200180602001806020018060200186810386528b818151815260200191508051906020019080838360005b83811015611340578082015181840152602081019050611325565b50505050905090810190601f16801561136d5780820380516001836020036101000a031916815260200191505b5086810385528a818151815260200191508051906020019080838360005b838110156113a657808201518184015260208101905061138b565b50505050905090810190601f1680156113d35780820380516001836020036101000a031916815260200191505b50868103845289818151815260200191508051906020019080838360005b8381101561140c5780820151818401526020810190506113f1565b50505050905090810190601f1680156114395780820380516001836020036101000a031916815260200191505b50868103835288818151815260200191508051906020019080838360005b83811015611472578082015181840152602081019050611457565b50505050905090810190601f16801561149f5780820380516001836020036101000a031916815260200191505b50868103825287818151815260200191508051906020019080838360005b838110156114d85780820151818401526020810190506114bd565b50505050905090810190601f1680156115055780820380516001836020036101000a031916815260200191505b509a505050505050505050505060405180910390f35b6115476004803603602081101561153157600080fd5b8101908080359060200190929190505050613b66565b604051808a815260200180602001806020018060200180602001806020018060200189815260200188815260200187810387528f818151815260200191508051906020019080838360005b838110156115ad578082015181840152602081019050611592565b50505050905090810190601f1680156115da5780820380516001836020036101000a031916815260200191505b5087810386528e818151815260200191508051906020019080838360005b838110156116135780820151818401526020810190506115f8565b50505050905090810190601f1680156116405780820380516001836020036101000a031916815260200191505b5087810385528d818151815260200191508051906020019080838360005b8381101561167957808201518184015260208101905061165e565b50505050905090810190601f1680156116a65780820380516001836020036101000a031916815260200191505b5087810384528c818151815260200191508051906020019080838360005b838110156116df5780820151818401526020810190506116c4565b50505050905090810190601f16801561170c5780820380516001836020036101000a031916815260200191505b5087810383528b818151815260200191508051906020019080838360005b8381101561174557808201518184015260208101905061172a565b50505050905090810190601f1680156117725780820380516001836020036101000a031916815260200191505b5087810382528a818151815260200191508051906020019080838360005b838110156117ab578082015181840152602081019050611790565b50505050905090810190601f1680156117d85780820380516001836020036101000a031916815260200191505b509f5050505050505050505050505050505060405180910390f35b611c57600480360361010081101561180a57600080fd5b810190808035906020019064010000000081111561182757600080fd5b82018360208201111561183957600080fd5b8035906020019184600183028401116401000000008311171561185b57600080fd5b91908080601f016020809104026020016040519081016040528093929190818152602001838380828437600081840152601f19601f820116905080830192505050505050509192919290803573ffffffffffffffffffffffffffffffffffffffff169060200190929190803590602001906401000000008111156118de57600080fd5b8201836020820111156118f057600080fd5b8035906020019184600183028401116401000000008311171561191257600080fd5b91908080601f016020809104026020016040519081016040528093929190818152602001838380828437600081840152601f19601f8201169050808301925050505050505091929192908035906020019064010000000081111561197557600080fd5b82018360208201111561198757600080fd5b803590602001918460018302840111640100000000831117156119a957600080fd5b91908080601f016020809104026020016040519081016040528093929190818152602001838380828437600081840152601f19601f82011690508083019250505050505050919291929080359060200190640100000000811115611a0c57600080fd5b820183602082011115611a1e57600080fd5b80359060200191846001830284011164010000000083111715611a4057600080fd5b91908080601f016020809104026020016040519081016040528093929190818152602001838380828437600081840152601f19601f82011690508083019250505050505050919291929080359060200190640100000000811115611aa357600080fd5b820183602082011115611ab557600080fd5b80359060200191846001830284011164010000000083111715611ad757600080fd5b91908080601f016020809104026020016040519081016040528093929190818152602001838380828437600081840152601f19601f82011690508083019250505050505050919291929080359060200190640100000000811115611b3a57600080fd5b820183602082011115611b4c57600080fd5b80359060200191846001830284011164010000000083111715611b6e57600080fd5b91908080601f016020809104026020016040519081016040528093929190818152602001838380828437600081840152601f19601f82011690508083019250505050505050919291929080359060200190640100000000811115611bd157600080fd5b820183602082011115611be357600080fd5b80359060200191846001830284011164010000000083111715611c0557600080fd5b91908080601f016020809104026020016040519081016040528093929190818152602001838380828437600081840152601f19601f820116905080830192505050505050509192919290505050613f44565b005b60045481565b6000600260405160200180807f310000000000000000000000000000000000000000000000000000000000000081525060010190506040516020818303038152906040526040518082805190602001908083835b60208310611cd65780518252602082019150602081019050602083039250611cb3565b6001836020036101000a038019825116818451168082178552505050505050905001915050602060405180830381855afa158015611d18573d6000803e3d6000fd5b5050506040513d6020811015611d2d57600080fd5b810190808051906020019092919050505060028060008573ffffffffffffffffffffffffffffffffffffffff1673ffffffffffffffffffffffffffffffffffffffff1681526020019081526020016000206004016040516020018082805460018160011615610100020316600290048015611ddf5780601f10611dbd576101008083540402835291820191611ddf565b820191906000526020600020905b815481529060010190602001808311611dcb575b50509150506040516020818303038152906040526040518082805190602001908083835b60208310611e265780518252602082019150602081019050602083039250611e03565b6001836020036101000a038019825116818451168082178552505050505050905001915050602060405180830381855afa158015611e68573d6000803e3d6000fd5b5050506040513d6020811015611e7d57600080fd5b81019080805190602001909291905050501415611e9d5760019050611ea2565b600090505b919050565b600080600080848152602001908152602001600020600701546000808581526020019081526020016000206008015491509150915091565b6000600154905090565b600060016000815480929190600101919050555060405180610120016040528060015481526020018981526020018881526020018781526020018681526020018581526020018481526020016000815260200160008152506000806001548152602001908152602001600020600082015181600001556020820151816001019080519060200190611f7b929190614182565b506040820151816002019080519060200190611f98929190614182565b506060820151816003019080519060200190611fb5929190614182565b506080820151816004019080519060200190611fd2929190614182565b5060a0820151816005019080519060200190611fef929190614182565b5060c082015181600601908051906020019061200c929190614182565b5060e082015181600701556101008201518160080155905050600080600154815260200190815260200160002060080160008154809291906001019190505550604051806080016040528042815260200183815260200186815260200160008152506000806001548152602001908152602001600020600901600080600060015481526020019081526020016000206008015481526020019081526020016000206000820151816000015560208201518160010190805190602001906120d3929190614182565b5060408201518160020190805190602001906120f0929190614182565b50606082015181600301559050507f3c958191e6ccab503ae675402e1c996a40a0e790bdd851abbd16d3b127e0f51660015486846000604051808581526020018060200180602001848152602001838103835286818151815260200191508051906020019080838360005b8381101561217657808201518184015260208101905061215b565b50505050905090810190601f1680156121a35780820380516001836020036101000a031916815260200191505b50838103825285818151815260200191508051906020019080838360005b838110156121dc5780820151818401526020810190506121c1565b50505050905090810190601f1680156122095780820380516001836020036101000a031916815260200191505b50965050505050505060405180910390a1979650505050505050565b60606003826040518082805190602001908083835b6020831061225d578051825260208201915060208101905060208303925061223a565b6001836020036101000a03801982511681845116808217855250505050505090500191505090815260200160405180910390208054600181600116156101000203166002900480601f0160208091040260200160405190810160405280929190818152602001828054600181600116156101000203166002900480156123245780601f106122f957610100808354040283529160200191612324565b820191906000526020600020905b81548152906001019060200180831161230757829003601f168201915b50505050509050919050565b6060806060806060806000808881526020019081526020016000206001016000808981526020019081526020016000206002016000808a81526020019081526020016000206003016000808b81526020019081526020016000206004016000808c81526020019081526020016000206005016000808d8152602001908152602001600020600601858054600181600116156101000203166002900480601f01602080910402602001604051908101604052809291908181526020018280546001816001161561010002031660029004801561244c5780601f106124215761010080835404028352916020019161244c565b820191906000526020600020905b81548152906001019060200180831161242f57829003601f168201915b50505050509550848054600181600116156101000203166002900480601f0160208091040260200160405190810160405280929190818152602001828054600181600116156101000203166002900480156124e85780601f106124bd576101008083540402835291602001916124e8565b820191906000526020600020905b8154815290600101906020018083116124cb57829003601f168201915b50505050509450838054600181600116156101000203166002900480601f0160208091040260200160405190810160405280929190818152602001828054600181600116156101000203166002900480156125845780601f1061255957610100808354040283529160200191612584565b820191906000526020600020905b81548152906001019060200180831161256757829003601f168201915b50505050509350828054600181600116156101000203166002900480601f0160208091040260200160405190810160405280929190818152602001828054600181600116156101000203166002900480156126205780601f106125f557610100808354040283529160200191612620565b820191906000526020600020905b81548152906001019060200180831161260357829003601f168201915b50505050509250818054600181600116156101000203166002900480601f0160208091040260200160405190810160405280929190818152602001828054600181600116156101000203166002900480156126bc5780601f10612691576101008083540402835291602001916126bc565b820191906000526020600020905b81548152906001019060200180831161269f57829003601f168201915b50505050509150808054600181600116156101000203166002900480601f0160208091040260200160405190810160405280929190818152602001828054600181600116156101000203166002900480156127585780601f1061272d57610100808354040283529160200191612758565b820191906000526020600020905b81548152906001019060200180831161273b57829003601f168201915b5050505050905095509550955095509550955091939550919395565b60026020528060005260406000206000915090508060000160009054906101000a900473ffffffffffffffffffffffffffffffffffffffff1690806001018054600181600116156101000203166002900480601f0160208091040260200160405190810160405280929190818152602001828054600181600116156101000203166002900480156128465780601f1061281b57610100808354040283529160200191612846565b820191906000526020600020905b81548152906001019060200180831161282957829003601f168201915b505050505090806002018054600181600116156101000203166002900480601f0160208091040260200160405190810160405280929190818152602001828054600181600116156101000203166002900480156128e45780601f106128b9576101008083540402835291602001916128e4565b820191906000526020600020905b8154815290600101906020018083116128c757829003601f168201915b505050505090806003018054600181600116156101000203166002900480601f0160208091040260200160405190810160405280929190818152602001828054600181600116156101000203166002900480156129825780601f1061295757610100808354040283529160200191612982565b820191906000526020600020905b81548152906001019060200180831161296557829003601f168201915b505050505090806004018054600181600116156101000203166002900480601f016020809104026020016040519081016040528092919081815260200182805460018160011615610100020316600290048015612a205780601f106129f557610100808354040283529160200191612a20565b820191906000526020600020905b815481529060010190602001808311612a0357829003601f168201915b505050505090806005018054600181600116156101000203166002900480601f016020809104026020016040519081016040528092919081815260200182805460018160011615610100020316600290048015612abe5780601f10612a9357610100808354040283529160200191612abe565b820191906000526020600020905b815481529060010190602001808311612aa157829003601f168201915b505050505090806006018054600181600116156101000203166002900480601f016020809104026020016040519081016040528092919081815260200182805460018160011615610100020316600290048015612b5c5780601f10612b3157610100808354040283529160200191612b5c565b820191906000526020600020905b815481529060010190602001808311612b3f57829003601f168201915b505050505090806007018054600181600116156101000203166002900480601f016020809104026020016040519081016040528092919081815260200182805460018160011615610100020316600290048015612bfa5780601f10612bcf57610100808354040283529160200191612bfa565b820191906000526020600020905b815481529060010190602001808311612bdd57829003601f168201915b5050505050905088565b60006060806000612c13614202565b600080888152602001908152602001600020600901600087815260200190815260200160002060405180608001604052908160008201548152602001600182018054600181600116156101000203166002900480601f016020809104026020016040519081016040528092919081815260200182805460018160011615610100020316600290048015612ce75780601f10612cbc57610100808354040283529160200191612ce7565b820191906000526020600020905b815481529060010190602001808311612cca57829003601f168201915b50505050508152602001600282018054600181600116156101000203166002900480601f016020809104026020016040519081016040528092919081815260200182805460018160011615610100020316600290048015612d895780601f10612d5e57610100808354040283529160200191612d89565b820191906000526020600020905b815481529060010190602001808311612d6c57829003601f168201915b505050505081526020016003820154815250509050806000015181602001518260400151836060015182925081915094509450945094505092959194509250565b60606002856040516020018082805190602001908083835b60208310612e055780518252602082019150602081019050602083039250612de2565b6001836020036101000a0380198251168184511680821785525050505050509050019150506040516020818303038152906040526040518082805190602001908083835b60208310612e6c5780518252602082019150602081019050602083039250612e49565b6001836020036101000a038019825116818451168082178552505050505050905001915050602060405180830381855afa158015612eae573d6000803e3d6000fd5b5050506040513d6020811015612ec357600080fd5b8101908080519060200190929190505050600260008089815260200190815260200160002060090160008060008b81526020019081526020016000206008015481526020019081526020016000206002016040516020018082805460018160011615610100020316600290048015612f725780601f10612f50576101008083540402835291820191612f72565b820191906000526020600020905b815481529060010190602001808311612f5e575b50509150506040516020818303038152906040526040518082805190602001908083835b60208310612fb95780518252602082019150602081019050602083039250612f96565b6001836020036101000a038019825116818451168082178552505050505050905001915050602060405180830381855afa158015612ffb573d6000803e3d6000fd5b5050506040513d602081101561301057600080fd5b81019080805190602001909291905050501461302b57600080fd5b6000808781526020019081526020016000206008016000815480929190600101919050555060405180608001604052804281526020018481526020018381526020018581525060008088815260200190815260200160002060090160008060008a81526020019081526020016000206008015481526020019081526020016000206000820151816000015560208201518160010190805190602001906130d2929190614182565b5060408201518160020190805190602001906130ef929190614182565b50606082015181600301559050507f5d821b8b6ce18465607d9c51957a48484030b98fc16bf4b5a700a595f2b2bd6f86838686604051808581526020018060200184815260200180602001838103835286818151815260200191508051906020019080838360005b83811015613172578082015181840152602081019050613157565b50505050905090810190601f16801561319f5780820380516001836020036101000a031916815260200191505b50838103825284818151815260200191508051906020019080838360005b838110156131d85780820151818401526020810190506131bd565b50505050905090810190601f1680156132055780820380516001836020036101000a031916815260200191505b50965050505050505060405180910390a195945050505050565b6000600454905090565b60015481565b60608060608060606002876040516020018082805190602001908083835b60208310613270578051825260208201915060208101905060208303925061324d565b6001836020036101000a0380198251168184511680821785525050505050509050019150506040516020818303038152906040526040518082805190602001908083835b602083106132d757805182526020820191506020810190506020830392506132b4565b6001836020036101000a038019825116818451168082178552505050505050905001915050602060405180830381855afa158015613319573d6000803e3d6000fd5b5050506040513d602081101561332e57600080fd5b810190808051906020019092919050505060028060008b73ffffffffffffffffffffffffffffffffffffffff1673ffffffffffffffffffffffffffffffffffffffff16815260200190815260200160002060010160405160200180828054600181600116156101000203166002900480156133e05780601f106133be5761010080835404028352918201916133e0565b820191906000526020600020905b8154815290600101906020018083116133cc575b50509150506040516020818303038152906040526040518082805190602001908083835b602083106134275780518252602082019150602081019050602083039250613404565b6001836020036101000a038019825116818451168082178552505050505050905001915050602060405180830381855afa158015613469573d6000803e3d6000fd5b5050506040513d602081101561347e57600080fd5b81019080805190602001909291905050501461349957600080fd5b6002866040516020018082805190602001908083835b602083106134d257805182526020820191506020810190506020830392506134af565b6001836020036101000a0380198251168184511680821785525050505050509050019150506040516020818303038152906040526040518082805190602001908083835b602083106135395780518252602082019150602081019050602083039250613516565b6001836020036101000a038019825116818451168082178552505050505050905001915050602060405180830381855afa15801561357b573d6000803e3d6000fd5b5050506040513d602081101561359057600080fd5b810190808051906020019092919050505060028060008b73ffffffffffffffffffffffffffffffffffffffff1673ffffffffffffffffffffffffffffffffffffffff16815260200190815260200160002060020160405160200180828054600181600116156101000203166002900480156136425780601f10613620576101008083540402835291820191613642565b820191906000526020600020905b81548152906001019060200180831161362e575b50509150506040516020818303038152906040526040518082805190602001908083835b602083106136895780518252602082019150602081019050602083039250613666565b6001836020036101000a038019825116818451168082178552505050505050905001915050602060405180830381855afa1580156136cb573d6000803e3d6000fd5b5050506040513d60208110156136e057600080fd5b8101908080519060200190929190505050146136fb57600080fd5b600260008973ffffffffffffffffffffffffffffffffffffffff1673ffffffffffffffffffffffffffffffffffffffff168152602001908152602001600020600301600260008a73ffffffffffffffffffffffffffffffffffffffff1673ffffffffffffffffffffffffffffffffffffffff168152602001908152602001600020600401600260008b73ffffffffffffffffffffffffffffffffffffffff1673ffffffffffffffffffffffffffffffffffffffff168152602001908152602001600020600501600260008c73ffffffffffffffffffffffffffffffffffffffff1673ffffffffffffffffffffffffffffffffffffffff168152602001908152602001600020600601600260008d73ffffffffffffffffffffffffffffffffffffffff1673ffffffffffffffffffffffffffffffffffffffff168152602001908152602001600020600701848054600181600116156101000203166002900480601f0160208091040260200160405190810160405280929190818152602001828054600181600116156101000203166002900480156138da5780601f106138af576101008083540402835291602001916138da565b820191906000526020600020905b8154815290600101906020018083116138bd57829003601f168201915b50505050509450838054600181600116156101000203166002900480601f0160208091040260200160405190810160405280929190818152602001828054600181600116156101000203166002900480156139765780601f1061394b57610100808354040283529160200191613976565b820191906000526020600020905b81548152906001019060200180831161395957829003601f168201915b50505050509350828054600181600116156101000203166002900480601f016020809104026020016040519081016040528092919081815260200182805460018160011615610100020316600290048015613a125780601f106139e757610100808354040283529160200191613a12565b820191906000526020600020905b8154815290600101906020018083116139f557829003601f168201915b50505050509250818054600181600116156101000203166002900480601f016020809104026020016040519081016040528092919081815260200182805460018160011615610100020316600290048015613aae5780601f10613a8357610100808354040283529160200191613aae565b820191906000526020600020905b815481529060010190602001808311613a9157829003601f168201915b50505050509150808054600181600116156101000203166002900480601f016020809104026020016040519081016040528092919081815260200182805460018160011615610100020316600290048015613b4a5780601f10613b1f57610100808354040283529160200191613b4a565b820191906000526020600020905b815481529060010190602001808311613b2d57829003601f168201915b5050505050905094509450945094509450939792965093509350565b6000602052806000526040600020600091509050806000015490806001018054600181600116156101000203166002900480601f016020809104026020016040519081016040528092919081815260200182805460018160011615610100020316600290048015613c185780601f10613bed57610100808354040283529160200191613c18565b820191906000526020600020905b815481529060010190602001808311613bfb57829003601f168201915b505050505090806002018054600181600116156101000203166002900480601f016020809104026020016040519081016040528092919081815260200182805460018160011615610100020316600290048015613cb65780601f10613c8b57610100808354040283529160200191613cb6565b820191906000526020600020905b815481529060010190602001808311613c9957829003601f168201915b505050505090806003018054600181600116156101000203166002900480601f016020809104026020016040519081016040528092919081815260200182805460018160011615610100020316600290048015613d545780601f10613d2957610100808354040283529160200191613d54565b820191906000526020600020905b815481529060010190602001808311613d3757829003601f168201915b505050505090806004018054600181600116156101000203166002900480601f016020809104026020016040519081016040528092919081815260200182805460018160011615610100020316600290048015613df25780601f10613dc757610100808354040283529160200191613df2565b820191906000526020600020905b815481529060010190602001808311613dd557829003601f168201915b505050505090806005018054600181600116156101000203166002900480601f016020809104026020016040519081016040528092919081815260200182805460018160011615610100020316600290048015613e905780601f10613e6557610100808354040283529160200191613e90565b820191906000526020600020905b815481529060010190602001808311613e7357829003601f168201915b505050505090806006018054600181600116156101000203166002900480601f016020809104026020016040519081016040528092919081815260200182805460018160011615610100020316600290048015613f2e5780601f10613f0357610100808354040283529160200191613f2e565b820191906000526020600020905b815481529060010190602001808311613f1157829003601f168201915b5050505050908060070154908060080154905089565b600460008154809291906001019190505550856003896040518082805190602001908083835b60208310613f8d5780518252602082019150602081019050602083039250613f6a565b6001836020036101000a03801982511681845116808217855250505050505090500191505090815260200160405180910390209080519060200190613fd392919061422a565b506040518061010001604052808873ffffffffffffffffffffffffffffffffffffffff16815260200187815260200186815260200189815260200185815260200184815260200183815260200182815250600260008973ffffffffffffffffffffffffffffffffffffffff1673ffffffffffffffffffffffffffffffffffffffff16815260200190815260200160002060008201518160000160006101000a81548173ffffffffffffffffffffffffffffffffffffffff021916908373ffffffffffffffffffffffffffffffffffffffff16021790555060208201518160010190805190602001906140c6929190614182565b5060408201518160020190805190602001906140e3929190614182565b506060820151816003019080519060200190614100929190614182565b50608082015181600401908051906020019061411d929190614182565b5060a082015181600501908051906020019061413a929190614182565b5060c0820151816006019080519060200190614157929190614182565b5060e0820151816007019080519060200190614174929190614182565b509050505050505050505050565b828054600181600116156101000203166002900490600052602060002090601f016020900481019282601f106141c357805160ff19168380011785556141f1565b828001600101855582156141f1579182015b828111156141f05782518255916020019190600101906141d5565b5b5090506141fe91906142aa565b5090565b6040518060800160405280600081526020016060815260200160608152602001600081525090565b828054600181600116156101000203166002900490600052602060002090601f016020900481019282601f1061426b57805160ff1916838001178555614299565b82800160010185558215614299579182015b8281111561429857825182559160200191906001019061427d565b5b5090506142a691906142aa565b5090565b6142cc91905b808211156142c85760008160009055506001016142b0565b5090565b9056fea265627a7a72315820a270c27423ea4663e24c9335bd7573ecdc0a7a0a40f745a67715c6ac43ed768264736f6c63430005100032",
  "source": "// SPDX-License-Identifier: MIT\npragma solidity >=0.4.22 <0.9.0;\n\nlibrary AssetLibrary {\n    struct Status {\n        uint256 time;\n        string status;\n        string owner;\n        uint256 verified;\n    }\n    struct Blood {\n        uint256 id;\n        string uniqueid;\n        string batch;\n        string aadhar;\n        string currentPosition;\n        string blood_group;\n        string expiry_date;\n        uint256 verified;\n        uint256 statusCount;\n        mapping(uint256 => Status) status;\n    }\n\n    struct Login {\n        // uint id;\n        address payable user_address;\n        string email;\n        string password;\n        string name;\n        string typeID;\n        string addressUser;\n        string phone;\n        string location;\n    }\n}\n\ncontract AssetTracker {\n    mapping(uint256 => AssetLibrary.Blood) public BloodStore;\n\n    uint256 public bloodCount = 0;\n\n    function createAsset(\n        string memory _uniqueid,\n        string memory _batch,\n        string memory _aadhar,\n        string memory _currentPosition,\n        string memory _blood_group,\n        string memory _expiry_date,\n        string memory _status\n    ) public returns (uint256) {\n        bloodCount++;\n        BloodStore[bloodCount] = AssetLibrary.Blood(\n            bloodCount,\n            _uniqueid,\n            _batch,\n            _aadhar,\n            _currentPosition,\n            _blood_group,\n            _expiry_date,\n            0,\n            0\n        );\n        BloodStore[bloodCount].statusCount++;\n        BloodStore[bloodCount].status[\n            BloodStore[bloodCount].statusCount\n        ] = AssetLibrary.Status(block.timestamp, _status, _currentPosition, 0);\n        emit BloodCreate(bloodCount, _currentPosition, _status, 0);\n    }\n\n    function getBlood(uint256 _id)\n        public\n        view\n        returns (\n            string memory,\n            string memory,\n            string memory,\n            string memory,\n            string memory,\n            string memory\n        )\n    {\n        return (\n            BloodStore[_id].uniqueid,\n            BloodStore[_id].batch,\n            BloodStore[_id].aadhar,\n            BloodStore[_id].currentPosition,\n            BloodStore[_id].blood_group,\n            BloodStore[_id].expiry_date\n        );\n    }\n\n    function getBlood2(uint256 _id) public view returns (uint256, uint256) {\n        return (BloodStore[_id].verified, BloodStore[_id].statusCount);\n    }\n\n    function transferAsset(\n        uint256 _id,\n        string memory _oldUser,\n        uint256 verified,\n        string memory _status,\n        string memory _newUser\n    ) public returns (string memory) {\n        require(\n            sha256(\n                abi.encodePacked(\n                    (BloodStore[_id].status[BloodStore[_id].statusCount].owner)\n                )\n            ) == sha256(abi.encodePacked((_oldUser)))\n        );\n        BloodStore[_id].statusCount++;\n        BloodStore[_id].status[BloodStore[_id].statusCount] = AssetLibrary\n            .Status(block.timestamp, _status, _newUser, verified);\n        emit BloodTransfer(_id, _newUser, verified, _status);\n    }\n\n    function getBloodCount() public view returns (uint256) {\n        return bloodCount;\n    }\n\n    function getStatus(uint256 _id, uint256 _statusCount)\n        public\n        view\n        returns (\n            uint256,\n            string memory,\n            string memory,\n            uint256\n        )\n    {\n        AssetLibrary.Status memory s = BloodStore[_id].status[_statusCount];\n        return (s.time, s.status, s.owner, s.verified);\n    }\n\n    event BloodTransfer(\n        uint256 id,\n        string newOwner,\n        uint256 verified,\n        string status\n    );\n\n    event BloodCreate(\n        uint256 id,\n        string currentPosition,\n        string status,\n        uint256 verified\n    );\n\n    mapping(address => AssetLibrary.Login) public LoginStore;\n    mapping(string => string) nametoemail;\n    \n    uint256 public userCount = 0;\n\n\n    function getIdentity(address payable user_address) public view returns (bool) {\n        \n        \n        if(sha256(abi.encodePacked(LoginStore[user_address].typeID)) == sha256(abi.encodePacked(\"1\")))\n            return true;\n        return false;\n    }\n\n    function addidentity(\n        string memory _name,\n        address payable user_address,\n        string memory _email,\n        string memory _password,\n        string memory _typeID,\n        string memory _address,\n        string memory _phone,\n        string memory _location\n    ) public {\n        userCount++;\n        nametoemail[_name] = _email;\n        LoginStore[user_address] = AssetLibrary.Login(\n            user_address,\n            _email,\n            _password,\n            _name,\n            _typeID,\n            _address,\n            _phone,\n            _location\n        );\n    }\n    \n    function getemail(string memory _name) public view returns (string memory) {\n        return nametoemail[_name];\n    }\n\n    function getLogin(\n        address payable _add,\n        string memory _email,\n        string memory _password\n    )\n        public\n        view\n        returns (\n            string memory,\n            string memory,\n            string memory,\n            string memory,\n            string memory\n        )\n    {\n        require(\n            sha256(abi.encodePacked((LoginStore[_add].email))) ==\n                sha256(abi.encodePacked((_email)))\n        );\n        require(\n            sha256(abi.encodePacked((LoginStore[_add].password))) ==\n                sha256(abi.encodePacked((_password)))\n        );\n        return (\n            LoginStore[_add].name,\n            LoginStore[_add].typeID,\n            LoginStore[_add].addressUser,\n            LoginStore[_add].phone,\n            LoginStore[_add].location\n        );\n    }\n\n    function getUserCount() public view returns (uint256) {\n        return userCount;\n    }\n}",
  "sourcePath": "/Users/keshavgoyal/Desktop/rakt-daan/src/contracts/AssetTracker.sol",
  "compiler": {
    "name": "solc",
    "version": "0.5.16+commit.9c3226ce.Emscripten.clang"
  },
  "schemaVersion": "3.4.11",
  "updatedAt": "2023-02-04T17:33:24.319Z",
  "networkType": "ethereum",
  "devdoc": {
    "methods": {}
  },
  "userdoc": {
    "methods": {}
  }
}