{
  "contractName": "BloodUnitTracker",
  "abi": [
    {
      "anonymous": false,
      "inputs": [
        {
          "indexed": false,
          "internalType": "uint256",
          "name": "id",
          "type": "uint256"
        },
        {
          "indexed": false,
          "internalType": "string",
          "name": "newOwner",
          "type": "string"
        },
        {
          "indexed": false,
          "internalType": "uint256",
          "name": "verified",
          "type": "uint256"
        },
        {
          "indexed": false,
          "internalType": "string",
          "name": "status",
          "type": "string"
        }
      ],
      "name": "BloodTransfer",
      "type": "event"
    },
    {
      "anonymous": false,
      "inputs": [
        {
          "indexed": false,
          "internalType": "uint256",
          "name": "id",
          "type": "uint256"
        },
        {
          "indexed": false,
          "internalType": "string",
          "name": "curr_owner",
          "type": "string"
        },
        {
          "indexed": false,
          "internalType": "string",
          "name": "curr_owner_add",
          "type": "string"
        },
        {
          "indexed": false,
          "internalType": "uint256",
          "name": "verified",
          "type": "uint256"
        }
      ],
      "name": "BloodUnitCreate",
      "type": "event"
    },
    {
      "constant": true,
      "inputs": [
        {
          "internalType": "uint256",
          "name": "",
          "type": "uint256"
        }
      ],
      "name": "BloodStore",
      "outputs": [
        {
          "internalType": "uint256",
          "name": "id",
          "type": "uint256"
        },
        {
          "internalType": "string",
          "name": "uniqueid",
          "type": "string"
        },
        {
          "internalType": "string",
          "name": "aadhar",
          "type": "string"
        },
        {
          "internalType": "string",
          "name": "blood_group",
          "type": "string"
        },
        {
          "internalType": "string",
          "name": "expiry_date",
          "type": "string"
        },
        {
          "internalType": "uint256",
          "name": "statusCount",
          "type": "uint256"
        }
      ],
      "payable": false,
      "stateMutability": "view",
      "type": "function"
    },
    {
      "constant": true,
      "inputs": [
        {
          "internalType": "address",
          "name": "",
          "type": "address"
        }
      ],
      "name": "UserStore",
      "outputs": [
        {
          "internalType": "address payable",
          "name": "user_address",
          "type": "address"
        },
        {
          "internalType": "string",
          "name": "email",
          "type": "string"
        },
        {
          "internalType": "string",
          "name": "password",
          "type": "string"
        },
        {
          "internalType": "string",
          "name": "name",
          "type": "string"
        },
        {
          "internalType": "string",
          "name": "addressUser",
          "type": "string"
        },
        {
          "internalType": "string",
          "name": "coords",
          "type": "string"
        },
        {
          "internalType": "string",
          "name": "typeID",
          "type": "string"
        },
        {
          "internalType": "bool",
          "name": "exists",
          "type": "bool"
        }
      ],
      "payable": false,
      "stateMutability": "view",
      "type": "function"
    },
    {
      "constant": true,
      "inputs": [],
      "name": "bloodCount",
      "outputs": [
        {
          "internalType": "uint256",
          "name": "",
          "type": "uint256"
        }
      ],
      "payable": false,
      "stateMutability": "view",
      "type": "function"
    },
    {
      "constant": true,
      "inputs": [],
      "name": "userCount",
      "outputs": [
        {
          "internalType": "uint256",
          "name": "",
          "type": "uint256"
        }
      ],
      "payable": false,
      "stateMutability": "view",
      "type": "function"
    },
    {
      "constant": false,
      "inputs": [
        {
          "internalType": "string",
          "name": "_uniqueid",
          "type": "string"
        },
        {
          "internalType": "string",
          "name": "_aadhar",
          "type": "string"
        },
        {
          "internalType": "string",
          "name": "_blood_group",
          "type": "string"
        },
        {
          "internalType": "string",
          "name": "_expiry_date",
          "type": "string"
        },
        {
          "internalType": "string",
          "name": "_cur_owner",
          "type": "string"
        },
        {
          "internalType": "string",
          "name": "_cur_owner_address",
          "type": "string"
        }
      ],
      "name": "addBloodUnit",
      "outputs": [
        {
          "internalType": "uint256",
          "name": "",
          "type": "uint256"
        }
      ],
      "payable": false,
      "stateMutability": "nonpayable",
      "type": "function"
    },
    {
      "constant": true,
      "inputs": [
        {
          "internalType": "uint256",
          "name": "_id",
          "type": "uint256"
        }
      ],
      "name": "getBloodData",
      "outputs": [
        {
          "internalType": "string",
          "name": "",
          "type": "string"
        },
        {
          "internalType": "string",
          "name": "",
          "type": "string"
        },
        {
          "internalType": "string",
          "name": "",
          "type": "string"
        },
        {
          "internalType": "string",
          "name": "",
          "type": "string"
        }
      ],
      "payable": false,
      "stateMutability": "view",
      "type": "function"
    },
    {
      "constant": true,
      "inputs": [
        {
          "internalType": "uint256",
          "name": "_id",
          "type": "uint256"
        }
      ],
      "name": "getBloodStatusCount",
      "outputs": [
        {
          "internalType": "uint256",
          "name": "",
          "type": "uint256"
        }
      ],
      "payable": false,
      "stateMutability": "view",
      "type": "function"
    },
    {
      "constant": false,
      "inputs": [
        {
          "internalType": "uint256",
          "name": "_id",
          "type": "uint256"
        },
        {
          "internalType": "string",
          "name": "_oldUser",
          "type": "string"
        },
        {
          "internalType": "uint256",
          "name": "verified",
          "type": "uint256"
        },
        {
          "internalType": "string",
          "name": "_status",
          "type": "string"
        },
        {
          "internalType": "string",
          "name": "_newUser",
          "type": "string"
        }
      ],
      "name": "transferAsset",
      "outputs": [
        {
          "internalType": "string",
          "name": "",
          "type": "string"
        }
      ],
      "payable": false,
      "stateMutability": "nonpayable",
      "type": "function"
    },
    {
      "constant": true,
      "inputs": [],
      "name": "getBloodCount",
      "outputs": [
        {
          "internalType": "uint256",
          "name": "",
          "type": "uint256"
        }
      ],
      "payable": false,
      "stateMutability": "view",
      "type": "function"
    },
    {
      "constant": true,
      "inputs": [
        {
          "internalType": "uint256",
          "name": "_id",
          "type": "uint256"
        },
        {
          "internalType": "uint256",
          "name": "_status_count",
          "type": "uint256"
        }
      ],
      "name": "getBloodStatus",
      "outputs": [
        {
          "internalType": "uint256",
          "name": "",
          "type": "uint256"
        },
        {
          "internalType": "string",
          "name": "",
          "type": "string"
        },
        {
          "internalType": "string",
          "name": "",
          "type": "string"
        },
        {
          "internalType": "uint256",
          "name": "",
          "type": "uint256"
        }
      ],
      "payable": false,
      "stateMutability": "view",
      "type": "function"
    },
    {
      "constant": true,
      "inputs": [
        {
          "internalType": "address payable",
          "name": "user_address",
          "type": "address"
        }
      ],
      "name": "getIdentity",
      "outputs": [
        {
          "internalType": "bool",
          "name": "",
          "type": "bool"
        }
      ],
      "payable": false,
      "stateMutability": "view",
      "type": "function"
    },
    {
      "constant": false,
      "inputs": [
        {
          "internalType": "string",
          "name": "_name",
          "type": "string"
        },
        {
          "internalType": "address payable",
          "name": "user_address",
          "type": "address"
        },
        {
          "internalType": "string",
          "name": "_email",
          "type": "string"
        },
        {
          "internalType": "string",
          "name": "_password",
          "type": "string"
        },
        {
          "internalType": "string",
          "name": "_address",
          "type": "string"
        },
        {
          "internalType": "string",
          "name": "_coords",
          "type": "string"
        },
        {
          "internalType": "string",
          "name": "_typeID",
          "type": "string"
        }
      ],
      "name": "addIdentity",
      "outputs": [],
      "payable": false,
      "stateMutability": "nonpayable",
      "type": "function"
    },
    {
      "constant": true,
      "inputs": [
        {
          "internalType": "address payable",
          "name": "_user_add",
          "type": "address"
        },
        {
          "internalType": "string",
          "name": "_email",
          "type": "string"
        },
        {
          "internalType": "string",
          "name": "_password",
          "type": "string"
        }
      ],
      "name": "getUser",
      "outputs": [
        {
          "internalType": "string",
          "name": "",
          "type": "string"
        },
        {
          "internalType": "string",
          "name": "",
          "type": "string"
        },
        {
          "internalType": "string",
          "name": "",
          "type": "string"
        },
        {
          "internalType": "string",
          "name": "",
          "type": "string"
        }
      ],
      "payable": false,
      "stateMutability": "view",
      "type": "function"
    },
    {
      "constant": true,
      "inputs": [],
      "name": "getUserCount",
      "outputs": [
        {
          "internalType": "uint256",
          "name": "",
          "type": "uint256"
        }
      ],
      "payable": false,
      "stateMutability": "view",
      "type": "function"
    }
  ],
  "bytecode": "0x60806040526000600155600060035534801561001a57600080fd5b5061359a8061002a6000396000f3fe608060405234801561001057600080fd5b50600436106100ea5760003560e01c806369978f261161008c578063acfabc1111610066578063acfabc11146112b5578063b5cb15f71461152b578063b6e857c614611549578063c88b53a514611567576100ea565b806369978f26146109cd57806374b5d2a614610d9b5780639281223614610f86576100ea565b80632fea7b81116100c85780632fea7b81146105fa5780634a5445371461065657806351f650e61461096d5780636272e2941461098b576100ea565b806307973ccf146100ef5780630c9e861a1461010d578063255d7fba14610238575b600080fd5b6100f7611760565b6040518082815260200191505060405180910390f35b6101436004803603604081101561012357600080fd5b810190808035906020019092919080359060200190929190505050611766565b604051808581526020018060200180602001848152602001838103835286818151815260200191508051906020019080838360005b83811015610193578082015181840152602081019050610178565b50505050905090810190601f1680156101c05780820380516001836020036101000a031916815260200191505b50838103825285818151815260200191508051906020019080838360005b838110156101f95780820151818401526020810190506101de565b50505050905090810190601f1680156102265780820380516001836020036101000a031916815260200191505b50965050505050505060405180910390f35b6105e4600480360360c081101561024e57600080fd5b810190808035906020019064010000000081111561026b57600080fd5b82018360208201111561027d57600080fd5b8035906020019184600183028401116401000000008311171561029f57600080fd5b91908080601f016020809104026020016040519081016040528093929190818152602001838380828437600081840152601f19601f8201169050808301925050505050505091929192908035906020019064010000000081111561030257600080fd5b82018360208201111561031457600080fd5b8035906020019184600183028401116401000000008311171561033657600080fd5b91908080601f016020809104026020016040519081016040528093929190818152602001838380828437600081840152601f19601f8201169050808301925050505050505091929192908035906020019064010000000081111561039957600080fd5b8201836020820111156103ab57600080fd5b803590602001918460018302840111640100000000831117156103cd57600080fd5b91908080601f016020809104026020016040519081016040528093929190818152602001838380828437600081840152601f19601f8201169050808301925050505050505091929192908035906020019064010000000081111561043057600080fd5b82018360208201111561044257600080fd5b8035906020019184600183028401116401000000008311171561046457600080fd5b91908080601f016020809104026020016040519081016040528093929190818152602001838380828437600081840152601f19601f820116905080830192505050505050509192919290803590602001906401000000008111156104c757600080fd5b8201836020820111156104d957600080fd5b803590602001918460018302840111640100000000831117156104fb57600080fd5b91908080601f016020809104026020016040519081016040528093929190818152602001838380828437600081840152601f19601f8201169050808301925050505050505091929192908035906020019064010000000081111561055e57600080fd5b82018360208201111561057057600080fd5b8035906020019184600183028401116401000000008311171561059257600080fd5b91908080601f016020809104026020016040519081016040528093929190818152602001838380828437600081840152601f19601f82011690508083019250505050505050919291929050505061192c565b6040518082815260200191505060405180910390f35b61063c6004803603602081101561061057600080fd5b81019080803573ffffffffffffffffffffffffffffffffffffffff169060200190929190505050611c0e565b604051808215151515815260200191505060405180910390f35b6106986004803603602081101561066c57600080fd5b81019080803573ffffffffffffffffffffffffffffffffffffffff169060200190929190505050611c78565b604051808973ffffffffffffffffffffffffffffffffffffffff1673ffffffffffffffffffffffffffffffffffffffff1681526020018060200180602001806020018060200180602001806020018815151515815260200187810387528e818151815260200191508051906020019080838360005b8381101561072857808201518184015260208101905061070d565b50505050905090810190601f1680156107555780820380516001836020036101000a031916815260200191505b5087810386528d818151815260200191508051906020019080838360005b8381101561078e578082015181840152602081019050610773565b50505050905090810190601f1680156107bb5780820380516001836020036101000a031916815260200191505b5087810385528c818151815260200191508051906020019080838360005b838110156107f45780820151818401526020810190506107d9565b50505050905090810190601f1680156108215780820380516001836020036101000a031916815260200191505b5087810384528b818151815260200191508051906020019080838360005b8381101561085a57808201518184015260208101905061083f565b50505050905090810190601f1680156108875780820380516001836020036101000a031916815260200191505b5087810383528a818151815260200191508051906020019080838360005b838110156108c05780820151818401526020810190506108a5565b50505050905090810190601f1680156108ed5780820380516001836020036101000a031916815260200191505b50878103825289818151815260200191508051906020019080838360005b8381101561092657808201518184015260208101905061090b565b50505050905090810190601f1680156109535780820380516001836020036101000a031916815260200191505b509e50505050505050505050505050505060405180910390f35b61097561207d565b6040518082815260200191505060405180910390f35b6109b7600480360360208110156109a157600080fd5b8101908080359060200190929190505050612087565b6040518082815260200191505060405180910390f35b610d99600480360360e08110156109e357600080fd5b8101908080359060200190640100000000811115610a0057600080fd5b820183602082011115610a1257600080fd5b80359060200191846001830284011164010000000083111715610a3457600080fd5b91908080601f016020809104026020016040519081016040528093929190818152602001838380828437600081840152601f19601f820116905080830192505050505050509192919290803573ffffffffffffffffffffffffffffffffffffffff16906020019092919080359060200190640100000000811115610ab757600080fd5b820183602082011115610ac957600080fd5b80359060200191846001830284011164010000000083111715610aeb57600080fd5b91908080601f016020809104026020016040519081016040528093929190818152602001838380828437600081840152601f19601f82011690508083019250505050505050919291929080359060200190640100000000811115610b4e57600080fd5b820183602082011115610b6057600080fd5b80359060200191846001830284011164010000000083111715610b8257600080fd5b91908080601f016020809104026020016040519081016040528093929190818152602001838380828437600081840152601f19601f82011690508083019250505050505050919291929080359060200190640100000000811115610be557600080fd5b820183602082011115610bf757600080fd5b80359060200191846001830284011164010000000083111715610c1957600080fd5b91908080601f016020809104026020016040519081016040528093929190818152602001838380828437600081840152601f19601f82011690508083019250505050505050919291929080359060200190640100000000811115610c7c57600080fd5b820183602082011115610c8e57600080fd5b80359060200191846001830284011164010000000083111715610cb057600080fd5b91908080601f016020809104026020016040519081016040528093929190818152602001838380828437600081840152601f19601f82011690508083019250505050505050919291929080359060200190640100000000811115610d1357600080fd5b820183602082011115610d2557600080fd5b80359060200191846001830284011164010000000083111715610d4757600080fd5b91908080601f016020809104026020016040519081016040528093929190818152602001838380828437600081840152601f19601f8201169050808301925050505050505091929192905050506120a6565b005b610dc760048036036020811015610db157600080fd5b810190808035906020019092919050505061226b565b6040518080602001806020018060200180602001858103855289818151815260200191508051906020019080838360005b83811015610e13578082015181840152602081019050610df8565b50505050905090810190601f168015610e405780820380516001836020036101000a031916815260200191505b50858103845288818151815260200191508051906020019080838360005b83811015610e79578082015181840152602081019050610e5e565b50505050905090810190601f168015610ea65780820380516001836020036101000a031916815260200191505b50858103835287818151815260200191508051906020019080838360005b83811015610edf578082015181840152602081019050610ec4565b50505050905090810190601f168015610f0c5780820380516001836020036101000a031916815260200191505b50858103825286818151815260200191508051906020019080838360005b83811015610f45578082015181840152602081019050610f2a565b50505050905090810190601f168015610f725780820380516001836020036101000a031916815260200191505b509850505050505050505060405180910390f35b6110f660048036036060811015610f9c57600080fd5b81019080803573ffffffffffffffffffffffffffffffffffffffff16906020019092919080359060200190640100000000811115610fd957600080fd5b820183602082011115610feb57600080fd5b8035906020019184600183028401116401000000008311171561100d57600080fd5b91908080601f016020809104026020016040519081016040528093929190818152602001838380828437600081840152601f19601f8201169050808301925050505050505091929192908035906020019064010000000081111561107057600080fd5b82018360208201111561108257600080fd5b803590602001918460018302840111640100000000831117156110a457600080fd5b91908080601f016020809104026020016040519081016040528093929190818152602001838380828437600081840152601f19601f820116905080830192505050505050509192919290505050612544565b6040518080602001806020018060200180602001858103855289818151815260200191508051906020019080838360005b83811015611142578082015181840152602081019050611127565b50505050905090810190601f16801561116f5780820380516001836020036101000a031916815260200191505b50858103845288818151815260200191508051906020019080838360005b838110156111a857808201518184015260208101905061118d565b50505050905090810190601f1680156111d55780820380516001836020036101000a031916815260200191505b50858103835287818151815260200191508051906020019080838360005b8381101561120e5780820151818401526020810190506111f3565b50505050905090810190601f16801561123b5780820380516001836020036101000a031916815260200191505b50858103825286818151815260200191508051906020019080838360005b83811015611274578082015181840152602081019050611259565b50505050905090810190601f1680156112a15780820380516001836020036101000a031916815260200191505b509850505050505050505060405180910390f35b6114b0600480360360a08110156112cb57600080fd5b8101908080359060200190929190803590602001906401000000008111156112f257600080fd5b82018360208201111561130457600080fd5b8035906020019184600183028401116401000000008311171561132657600080fd5b91908080601f016020809104026020016040519081016040528093929190818152602001838380828437600081840152601f19601f820116905080830192505050505050509192919290803590602001909291908035906020019064010000000081111561139357600080fd5b8201836020820111156113a557600080fd5b803590602001918460018302840111640100000000831117156113c757600080fd5b91908080601f016020809104026020016040519081016040528093929190818152602001838380828437600081840152601f19601f8201169050808301925050505050505091929192908035906020019064010000000081111561142a57600080fd5b82018360208201111561143c57600080fd5b8035906020019184600183028401116401000000008311171561145e57600080fd5b91908080601f016020809104026020016040519081016040528093929190818152602001838380828437600081840152601f19601f820116905080830192505050505050509192919290505050612d97565b6040518080602001828103825283818151815260200191508051906020019080838360005b838110156114f05780820151818401526020810190506114d5565b50505050905090810190601f16801561151d5780820380516001836020036101000a031916815260200191505b509250505060405180910390f35b6115336131ec565b6040518082815260200191505060405180910390f35b6115516131f6565b6040518082815260200191505060405180910390f35b6115936004803603602081101561157d57600080fd5b81019080803590602001909291905050506131fc565b604051808781526020018060200180602001806020018060200186815260200185810385528a818151815260200191508051906020019080838360005b838110156115eb5780820151818401526020810190506115d0565b50505050905090810190601f1680156116185780820380516001836020036101000a031916815260200191505b50858103845289818151815260200191508051906020019080838360005b83811015611651578082015181840152602081019050611636565b50505050905090810190601f16801561167e5780820380516001836020036101000a031916815260200191505b50858103835288818151815260200191508051906020019080838360005b838110156116b757808201518184015260208101905061169c565b50505050905090810190601f1680156116e45780820380516001836020036101000a031916815260200191505b50858103825287818151815260200191508051906020019080838360005b8381101561171d578082015181840152602081019050611702565b50505050905090810190601f16801561174a5780820380516001836020036101000a031916815260200191505b509a505050505050505050505060405180910390f35b60035481565b60006060806000611775613498565b600080888152602001908152602001600020600601600087815260200190815260200160002060405180608001604052908160008201548152602001600182018054600181600116156101000203166002900480601f0160208091040260200160405190810160405280929190818152602001828054600181600116156101000203166002900480156118495780601f1061181e57610100808354040283529160200191611849565b820191906000526020600020905b81548152906001019060200180831161182c57829003601f168201915b50505050508152602001600282018054600181600116156101000203166002900480601f0160208091040260200160405190810160405280929190818152602001828054600181600116156101000203166002900480156118eb5780601f106118c0576101008083540402835291602001916118eb565b820191906000526020600020905b8154815290600101906020018083116118ce57829003601f168201915b505050505081526020016003820154815250509050806000015181602001518260400151836060015182925081915094509450945094505092959194509250565b60006001600081548092919060010191905055506040518060c001604052806001548152602001888152602001878152602001868152602001858152602001600081525060008060015481526020019081526020016000206000820151816000015560208201518160010190805190602001906119aa9291906134c0565b5060408201518160020190805190602001906119c79291906134c0565b5060608201518160030190805190602001906119e49291906134c0565b506080820151816004019080519060200190611a019291906134c0565b5060a0820151816005015590505060008060015481526020019081526020016000206005016000815480929190600101919050555060405180608001604052804281526020018381526020018481526020016000815250600080600154815260200190815260200160002060060160008060006001548152602001908152602001600020600501548152602001908152602001600020600082015181600001556020820151816001019080519060200190611abd9291906134c0565b506040820151816002019080519060200190611ada9291906134c0565b50606082015181600301559050507f644bbbb3f89829fbb21807f317732bef533c7f1dc72733ff91b8a3abfe4c8fda60015484846000604051808581526020018060200180602001848152602001838103835286818151815260200191508051906020019080838360005b83811015611b60578082015181840152602081019050611b45565b50505050905090810190601f168015611b8d5780820380516001836020036101000a031916815260200191505b50838103825285818151815260200191508051906020019080838360005b83811015611bc6578082015181840152602081019050611bab565b50505050905090810190601f168015611bf35780820380516001836020036101000a031916815260200191505b50965050505050505060405180910390a19695505050505050565b6000600260008373ffffffffffffffffffffffffffffffffffffffff1673ffffffffffffffffffffffffffffffffffffffff16815260200190815260200160002060070160009054906101000a900460ff1615611c6e5760019050611c73565b600090505b919050565b60026020528060005260406000206000915090508060000160009054906101000a900473ffffffffffffffffffffffffffffffffffffffff1690806001018054600181600116156101000203166002900480601f016020809104026020016040519081016040528092919081815260200182805460018160011615610100020316600290048015611d4a5780601f10611d1f57610100808354040283529160200191611d4a565b820191906000526020600020905b815481529060010190602001808311611d2d57829003601f168201915b505050505090806002018054600181600116156101000203166002900480601f016020809104026020016040519081016040528092919081815260200182805460018160011615610100020316600290048015611de85780601f10611dbd57610100808354040283529160200191611de8565b820191906000526020600020905b815481529060010190602001808311611dcb57829003601f168201915b505050505090806003018054600181600116156101000203166002900480601f016020809104026020016040519081016040528092919081815260200182805460018160011615610100020316600290048015611e865780601f10611e5b57610100808354040283529160200191611e86565b820191906000526020600020905b815481529060010190602001808311611e6957829003601f168201915b505050505090806004018054600181600116156101000203166002900480601f016020809104026020016040519081016040528092919081815260200182805460018160011615610100020316600290048015611f245780601f10611ef957610100808354040283529160200191611f24565b820191906000526020600020905b815481529060010190602001808311611f0757829003601f168201915b505050505090806005018054600181600116156101000203166002900480601f016020809104026020016040519081016040528092919081815260200182805460018160011615610100020316600290048015611fc25780601f10611f9757610100808354040283529160200191611fc2565b820191906000526020600020905b815481529060010190602001808311611fa557829003601f168201915b505050505090806006018054600181600116156101000203166002900480601f0160208091040260200160405190810160405280929190818152602001828054600181600116156101000203166002900480156120605780601f1061203557610100808354040283529160200191612060565b820191906000526020600020905b81548152906001019060200180831161204357829003601f168201915b5050505050908060070160009054906101000a900460ff16905088565b6000600154905090565b6000806000838152602001908152602001600020600501549050919050565b6003600081548092919060010191905055506040518061010001604052808773ffffffffffffffffffffffffffffffffffffffff16815260200186815260200185815260200188815260200184815260200183815260200182815260200160011515815250600260008873ffffffffffffffffffffffffffffffffffffffff1673ffffffffffffffffffffffffffffffffffffffff16815260200190815260200160002060008201518160000160006101000a81548173ffffffffffffffffffffffffffffffffffffffff021916908373ffffffffffffffffffffffffffffffffffffffff16021790555060208201518160010190805190602001906121ad9291906134c0565b5060408201518160020190805190602001906121ca9291906134c0565b5060608201518160030190805190602001906121e79291906134c0565b5060808201518160040190805190602001906122049291906134c0565b5060a08201518160050190805190602001906122219291906134c0565b5060c082015181600601908051906020019061223e9291906134c0565b5060e08201518160070160006101000a81548160ff02191690831515021790555090505050505050505050565b606080606080600080868152602001908152602001600020600101600080878152602001908152602001600020600201600080888152602001908152602001600020600301600080898152602001908152602001600020600401838054600181600116156101000203166002900480601f01602080910402602001604051908101604052809291908181526020018280546001816001161561010002031660029004801561235a5780601f1061232f5761010080835404028352916020019161235a565b820191906000526020600020905b81548152906001019060200180831161233d57829003601f168201915b50505050509350828054600181600116156101000203166002900480601f0160208091040260200160405190810160405280929190818152602001828054600181600116156101000203166002900480156123f65780601f106123cb576101008083540402835291602001916123f6565b820191906000526020600020905b8154815290600101906020018083116123d957829003601f168201915b50505050509250818054600181600116156101000203166002900480601f0160208091040260200160405190810160405280929190818152602001828054600181600116156101000203166002900480156124925780601f1061246757610100808354040283529160200191612492565b820191906000526020600020905b81548152906001019060200180831161247557829003601f168201915b50505050509150808054600181600116156101000203166002900480601f01602080910402602001604051908101604052809291908181526020018280546001816001161561010002031660029004801561252e5780601f106125035761010080835404028352916020019161252e565b820191906000526020600020905b81548152906001019060200180831161251157829003601f168201915b5050505050905093509350935093509193509193565b6060806060806002866040516020018082805190602001908083835b602083106125835780518252602082019150602081019050602083039250612560565b6001836020036101000a0380198251168184511680821785525050505050509050019150506040516020818303038152906040526040518082805190602001908083835b602083106125ea57805182526020820191506020810190506020830392506125c7565b6001836020036101000a038019825116818451168082178552505050505050905001915050602060405180830381855afa15801561262c573d6000803e3d6000fd5b5050506040513d602081101561264157600080fd5b810190808051906020019092919050505060028060008a73ffffffffffffffffffffffffffffffffffffffff1673ffffffffffffffffffffffffffffffffffffffff16815260200190815260200160002060010160405160200180828054600181600116156101000203166002900480156126f35780601f106126d15761010080835404028352918201916126f3565b820191906000526020600020905b8154815290600101906020018083116126df575b50509150506040516020818303038152906040526040518082805190602001908083835b6020831061273a5780518252602082019150602081019050602083039250612717565b6001836020036101000a038019825116818451168082178552505050505050905001915050602060405180830381855afa15801561277c573d6000803e3d6000fd5b5050506040513d602081101561279157600080fd5b8101908080519060200190929190505050146127ac57600080fd5b6002856040516020018082805190602001908083835b602083106127e557805182526020820191506020810190506020830392506127c2565b6001836020036101000a0380198251168184511680821785525050505050509050019150506040516020818303038152906040526040518082805190602001908083835b6020831061284c5780518252602082019150602081019050602083039250612829565b6001836020036101000a038019825116818451168082178552505050505050905001915050602060405180830381855afa15801561288e573d6000803e3d6000fd5b5050506040513d60208110156128a357600080fd5b810190808051906020019092919050505060028060008a73ffffffffffffffffffffffffffffffffffffffff1673ffffffffffffffffffffffffffffffffffffffff16815260200190815260200160002060020160405160200180828054600181600116156101000203166002900480156129555780601f10612933576101008083540402835291820191612955565b820191906000526020600020905b815481529060010190602001808311612941575b50509150506040516020818303038152906040526040518082805190602001908083835b6020831061299c5780518252602082019150602081019050602083039250612979565b6001836020036101000a038019825116818451168082178552505050505050905001915050602060405180830381855afa1580156129de573d6000803e3d6000fd5b5050506040513d60208110156129f357600080fd5b810190808051906020019092919050505014612a0e57600080fd5b600260008873ffffffffffffffffffffffffffffffffffffffff1673ffffffffffffffffffffffffffffffffffffffff168152602001908152602001600020600301600260008973ffffffffffffffffffffffffffffffffffffffff1673ffffffffffffffffffffffffffffffffffffffff168152602001908152602001600020600601600260008a73ffffffffffffffffffffffffffffffffffffffff1673ffffffffffffffffffffffffffffffffffffffff168152602001908152602001600020600401600260008b73ffffffffffffffffffffffffffffffffffffffff1673ffffffffffffffffffffffffffffffffffffffff168152602001908152602001600020600501838054600181600116156101000203166002900480601f016020809104026020016040519081016040528092919081815260200182805460018160011615610100020316600290048015612bab5780601f10612b8057610100808354040283529160200191612bab565b820191906000526020600020905b815481529060010190602001808311612b8e57829003601f168201915b50505050509350828054600181600116156101000203166002900480601f016020809104026020016040519081016040528092919081815260200182805460018160011615610100020316600290048015612c475780601f10612c1c57610100808354040283529160200191612c47565b820191906000526020600020905b815481529060010190602001808311612c2a57829003601f168201915b50505050509250818054600181600116156101000203166002900480601f016020809104026020016040519081016040528092919081815260200182805460018160011615610100020316600290048015612ce35780601f10612cb857610100808354040283529160200191612ce3565b820191906000526020600020905b815481529060010190602001808311612cc657829003601f168201915b50505050509150808054600181600116156101000203166002900480601f016020809104026020016040519081016040528092919081815260200182805460018160011615610100020316600290048015612d7f5780601f10612d5457610100808354040283529160200191612d7f565b820191906000526020600020905b815481529060010190602001808311612d6257829003601f168201915b50505050509050935093509350935093509350935093565b60606002856040516020018082805190602001908083835b60208310612dd25780518252602082019150602081019050602083039250612daf565b6001836020036101000a0380198251168184511680821785525050505050509050019150506040516020818303038152906040526040518082805190602001908083835b60208310612e395780518252602082019150602081019050602083039250612e16565b6001836020036101000a038019825116818451168082178552505050505050905001915050602060405180830381855afa158015612e7b573d6000803e3d6000fd5b5050506040513d6020811015612e9057600080fd5b8101908080519060200190929190505050600260008089815260200190815260200160002060060160008060008b81526020019081526020016000206005015481526020019081526020016000206002016040516020018082805460018160011615610100020316600290048015612f3f5780601f10612f1d576101008083540402835291820191612f3f565b820191906000526020600020905b815481529060010190602001808311612f2b575b50509150506040516020818303038152906040526040518082805190602001908083835b60208310612f865780518252602082019150602081019050602083039250612f63565b6001836020036101000a038019825116818451168082178552505050505050905001915050602060405180830381855afa158015612fc8573d6000803e3d6000fd5b5050506040513d6020811015612fdd57600080fd5b810190808051906020019092919050505014612ff857600080fd5b6000808781526020019081526020016000206005016000815480929190600101919050555060405180608001604052804281526020018481526020018381526020018581525060008088815260200190815260200160002060060160008060008a815260200190815260200160002060050154815260200190815260200160002060008201518160000155602082015181600101908051906020019061309f9291906134c0565b5060408201518160020190805190602001906130bc9291906134c0565b50606082015181600301559050507f5d821b8b6ce18465607d9c51957a48484030b98fc16bf4b5a700a595f2b2bd6f86838686604051808581526020018060200184815260200180602001838103835286818151815260200191508051906020019080838360005b8381101561313f578082015181840152602081019050613124565b50505050905090810190601f16801561316c5780820380516001836020036101000a031916815260200191505b50838103825284818151815260200191508051906020019080838360005b838110156131a557808201518184015260208101905061318a565b50505050905090810190601f1680156131d25780820380516001836020036101000a031916815260200191505b50965050505050505060405180910390a195945050505050565b6000600354905090565b60015481565b6000602052806000526040600020600091509050806000015490806001018054600181600116156101000203166002900480601f0160208091040260200160405190810160405280929190818152602001828054600181600116156101000203166002900480156132ae5780601f10613283576101008083540402835291602001916132ae565b820191906000526020600020905b81548152906001019060200180831161329157829003601f168201915b505050505090806002018054600181600116156101000203166002900480601f01602080910402602001604051908101604052809291908181526020018280546001816001161561010002031660029004801561334c5780601f106133215761010080835404028352916020019161334c565b820191906000526020600020905b81548152906001019060200180831161332f57829003601f168201915b505050505090806003018054600181600116156101000203166002900480601f0160208091040260200160405190810160405280929190818152602001828054600181600116156101000203166002900480156133ea5780601f106133bf576101008083540402835291602001916133ea565b820191906000526020600020905b8154815290600101906020018083116133cd57829003601f168201915b505050505090806004018054600181600116156101000203166002900480601f0160208091040260200160405190810160405280929190818152602001828054600181600116156101000203166002900480156134885780601f1061345d57610100808354040283529160200191613488565b820191906000526020600020905b81548152906001019060200180831161346b57829003601f168201915b5050505050908060050154905086565b6040518060800160405280600081526020016060815260200160608152602001600081525090565b828054600181600116156101000203166002900490600052602060002090601f016020900481019282601f1061350157805160ff191683800117855561352f565b8280016001018555821561352f579182015b8281111561352e578251825591602001919060010190613513565b5b50905061353c9190613540565b5090565b61356291905b8082111561355e576000816000905550600101613546565b5090565b9056fea265627a7a723158201e984135a6d0a9278d5586f6472f56b7e38b88553be050e4e6877bdee92a3c4a64736f6c63430005100032",
  "source": "// SPDX-License-Identifier: MIT\r\npragma solidity >=0.4.22 <0.9.0;\r\n\r\nlibrary BloodUnitLibrary {\r\n  struct BloodStatus {\r\n    uint256 time; //status time\r\n    string cur_add; // address of current owner\r\n    string owner; // current owner name\r\n    uint256 verified; // 0 for not checked 1 for safe 2 for unsafe\r\n  }\r\n  struct BloodUnit {\r\n    uint256 id; // to fetch in map\r\n    string uniqueid;\r\n    string aadhar;\r\n    string blood_group;\r\n    string expiry_date;\r\n    uint256 statusCount; // keep track of no of status changes\r\n    mapping(uint256 => BloodStatus) bloodStatus;\r\n  }\r\n\r\n  struct User {\r\n    address payable user_address;\r\n    string email;\r\n    string password;\r\n    string name;\r\n    string addressUser;\r\n    string coords; // coordinates from address\r\n    string typeID;\r\n    bool exists;\r\n  }\r\n}\r\n\r\ncontract BloodUnitTracker {\r\n  mapping(uint256 => BloodUnitLibrary.BloodUnit) public BloodStore;\r\n\r\n  // to store the no of available bloods\r\n  // its public so that we can modify from js\r\n  uint256 public bloodCount = 0;\r\n\r\n  // event to store bloodUnit Creation on Chain\r\n  event BloodUnitCreate(\r\n    uint256 id,\r\n    string curr_owner,\r\n    string curr_owner_add,\r\n    uint256 verified\r\n  );\r\n\r\n  // event to store blood transfer from Blood Bank to Hospital on Chain\r\n  event BloodTransfer(\r\n    uint256 id,\r\n    string newOwner,\r\n    uint256 verified,\r\n    string status\r\n  );\r\n\r\n  // BloodUnit Methods\r\n\r\n  function addBloodUnit(\r\n    string memory _uniqueid,\r\n    string memory _aadhar,\r\n    string memory _blood_group,\r\n    string memory _expiry_date,\r\n    string memory _cur_owner,\r\n    string memory _cur_owner_address // ccordinates\r\n  ) public returns (uint256) {\r\n    bloodCount++;\r\n    BloodStore[bloodCount] = BloodUnitLibrary.BloodUnit(\r\n      bloodCount,\r\n      _uniqueid,\r\n      _aadhar,\r\n      _blood_group,\r\n      _expiry_date,\r\n      0\r\n    );\r\n    BloodStore[bloodCount].statusCount++;\r\n    BloodStore[bloodCount].bloodStatus[\r\n      BloodStore[bloodCount].statusCount\r\n    ] = BloodUnitLibrary.BloodStatus(\r\n      block.timestamp,\r\n      _cur_owner_address,\r\n      _cur_owner,\r\n      0\r\n    );\r\n    // save transaction on Chain\r\n    emit BloodUnitCreate(bloodCount, _cur_owner, _cur_owner_address, 0);\r\n  }\r\n\r\n  // give detail about the donor and sample\r\n  function getBloodData(\r\n    uint256 _id\r\n  )\r\n    public\r\n    view\r\n    returns (string memory, string memory, string memory, string memory)\r\n  {\r\n    return (\r\n      BloodStore[_id].uniqueid,\r\n      BloodStore[_id].aadhar,\r\n      BloodStore[_id].blood_group,\r\n      BloodStore[_id].expiry_date\r\n    );\r\n  }\r\n\r\n  //give verification status and no of changes done on this smaple\r\n  function getBloodStatusCount(uint256 _id) public view returns (uint256) {\r\n    return (BloodStore[_id].statusCount);\r\n  }\r\n\r\n  function transferAsset(\r\n    uint256 _id,\r\n    string memory _oldUser,\r\n    uint256 verified,\r\n    string memory _status,\r\n    string memory _newUser\r\n  ) public returns (string memory) {\r\n    require(\r\n      sha256(\r\n        abi.encodePacked(\r\n          (BloodStore[_id].bloodStatus[BloodStore[_id].statusCount].owner)\r\n        )\r\n      ) == sha256(abi.encodePacked((_oldUser)))\r\n    );\r\n    BloodStore[_id].statusCount++;\r\n    BloodStore[_id].bloodStatus[BloodStore[_id].statusCount] = BloodUnitLibrary\r\n      .BloodStatus(block.timestamp, _status, _newUser, verified);\r\n\r\n    // save tranfer transaction on Chain\r\n    emit BloodTransfer(_id, _newUser, verified, _status);\r\n  }\r\n\r\n  // get total avl bloods\r\n  function getBloodCount() public view returns (uint256) {\r\n    return bloodCount;\r\n  }\r\n\r\n  // Status Methods\r\n\r\n  function getBloodStatus(\r\n    uint256 _id,\r\n    uint256 _status_count\r\n  ) public view returns (uint256, string memory, string memory, uint256) {\r\n    // finding status of Blood of given id and status count\r\n    BloodUnitLibrary.BloodStatus memory tempStatus = BloodStore[_id]\r\n      .bloodStatus[_status_count];\r\n    return (\r\n      tempStatus.time,\r\n      tempStatus.cur_add,\r\n      tempStatus.owner,\r\n      tempStatus.verified\r\n    );\r\n  }\r\n\r\n  // User Methods\r\n\r\n  mapping(address => BloodUnitLibrary.User) public UserStore;\r\n\r\n  uint256 public userCount = 0;\r\n\r\n  function getIdentity(\r\n    address payable user_address\r\n  ) public view returns (bool) {\r\n    if (UserStore[user_address].exists) return true;\r\n    return false;\r\n  }\r\n\r\n  function addIdentity(\r\n    string memory _name,\r\n    address payable user_address,\r\n    string memory _email,\r\n    string memory _password,\r\n    string memory _address,\r\n    string memory _coords,\r\n    string memory _typeID\r\n  ) public {\r\n    userCount++;\r\n    UserStore[user_address] = BloodUnitLibrary.User(\r\n      user_address,\r\n      _email,\r\n      _password,\r\n      _name,\r\n      _address,\r\n      _coords,\r\n      _typeID,\r\n      true\r\n    );\r\n  }\r\n\r\n  function getUser(\r\n    address payable _user_add,\r\n    string memory _email,\r\n    string memory _password\r\n  )\r\n    public\r\n    view\r\n    returns (string memory, string memory, string memory, string memory)\r\n  {\r\n    require(\r\n      sha256(abi.encodePacked((UserStore[_user_add].email))) ==\r\n        sha256(abi.encodePacked((_email)))\r\n    );\r\n    require(\r\n      sha256(abi.encodePacked((UserStore[_user_add].password))) ==\r\n        sha256(abi.encodePacked((_password)))\r\n    );\r\n    return (\r\n      UserStore[_user_add].name,\r\n      UserStore[_user_add].typeID,\r\n      UserStore[_user_add].addressUser,\r\n      UserStore[_user_add].coords\r\n    );\r\n  }\r\n\r\n  function getUserCount() public view returns (uint256) {\r\n    return userCount;\r\n  }\r\n}\r\n",
  "sourcePath": "C:\\Users\\bhara\\Desktop\\rakt-daan\\src\\contracts\\BloodUnitTracker.sol",
  "compiler": {
    "name": "solc",
    "version": "0.5.16+commit.9c3226ce.Emscripten.clang"
  },
  "schemaVersion": "3.4.11",
  "updatedAt": "2023-02-05T05:17:53.982Z",
  "networkType": "ethereum",
  "devdoc": {
    "methods": {}
  },
  "userdoc": {
    "methods": {}
  }
}