{
  "contractName": "BloodUnitTracker",
  "abi": [
    {
      "anonymous": false,
      "inputs": [
        {
          "indexed": false,
          "internalType": "uint256",
          "name": "id",
          "type": "uint256"
        },
        {
          "indexed": false,
          "internalType": "string",
          "name": "curr_location",
          "type": "string"
        },
        {
          "indexed": false,
          "internalType": "string",
          "name": "status",
          "type": "string"
        },
        {
          "indexed": false,
          "internalType": "uint256",
          "name": "verified",
          "type": "uint256"
        }
      ],
      "name": "BloodCreate",
      "type": "event"
    },
    {
      "anonymous": false,
      "inputs": [
        {
          "indexed": false,
          "internalType": "uint256",
          "name": "id",
          "type": "uint256"
        },
        {
          "indexed": false,
          "internalType": "string",
          "name": "newOwner",
          "type": "string"
        },
        {
          "indexed": false,
          "internalType": "uint256",
          "name": "verified",
          "type": "uint256"
        },
        {
          "indexed": false,
          "internalType": "string",
          "name": "status",
          "type": "string"
        }
      ],
      "name": "BloodTransfer",
      "type": "event"
    },
    {
      "constant": true,
      "inputs": [
        {
          "internalType": "uint256",
          "name": "",
          "type": "uint256"
        }
      ],
      "name": "BloodStore",
      "outputs": [
        {
          "internalType": "uint256",
          "name": "id",
          "type": "uint256"
        },
        {
          "internalType": "string",
          "name": "uniqueid",
          "type": "string"
        },
        {
          "internalType": "string",
          "name": "aadhar",
          "type": "string"
        },
        {
          "internalType": "string",
          "name": "curr_location",
          "type": "string"
        },
        {
          "internalType": "string",
          "name": "blood_group",
          "type": "string"
        },
        {
          "internalType": "string",
          "name": "expiry_date",
          "type": "string"
        },
        {
          "internalType": "uint256",
          "name": "verified",
          "type": "uint256"
        },
        {
          "internalType": "uint256",
          "name": "statusCount",
          "type": "uint256"
        }
      ],
      "payable": false,
      "stateMutability": "view",
      "type": "function"
    },
    {
      "constant": true,
      "inputs": [
        {
          "internalType": "address",
          "name": "",
          "type": "address"
        }
      ],
      "name": "UserStore",
      "outputs": [
        {
          "internalType": "address payable",
          "name": "user_address",
          "type": "address"
        },
        {
          "internalType": "string",
          "name": "email",
          "type": "string"
        },
        {
          "internalType": "string",
          "name": "password",
          "type": "string"
        },
        {
          "internalType": "string",
          "name": "name",
          "type": "string"
        },
        {
          "internalType": "string",
          "name": "typeID",
          "type": "string"
        },
        {
          "internalType": "string",
          "name": "addressUser",
          "type": "string"
        },
        {
          "internalType": "string",
          "name": "phone",
          "type": "string"
        },
        {
          "internalType": "bool",
          "name": "exists",
          "type": "bool"
        }
      ],
      "payable": false,
      "stateMutability": "view",
      "type": "function"
    },
    {
      "constant": true,
      "inputs": [],
      "name": "bloodCount",
      "outputs": [
        {
          "internalType": "uint256",
          "name": "",
          "type": "uint256"
        }
      ],
      "payable": false,
      "stateMutability": "view",
      "type": "function"
    },
    {
      "constant": true,
      "inputs": [],
      "name": "userCount",
      "outputs": [
        {
          "internalType": "uint256",
          "name": "",
          "type": "uint256"
        }
      ],
      "payable": false,
      "stateMutability": "view",
      "type": "function"
    },
    {
      "constant": false,
      "inputs": [
        {
          "internalType": "string",
          "name": "_uniqueid",
          "type": "string"
        },
        {
          "internalType": "string",
          "name": "_aadhar",
          "type": "string"
        },
        {
          "internalType": "string",
          "name": "_curr_location",
          "type": "string"
        },
        {
          "internalType": "string",
          "name": "_blood_group",
          "type": "string"
        },
        {
          "internalType": "string",
          "name": "_expiry_date",
          "type": "string"
        },
        {
          "internalType": "string",
          "name": "_status",
          "type": "string"
        }
      ],
      "name": "createAsset",
      "outputs": [
        {
          "internalType": "uint256",
          "name": "",
          "type": "uint256"
        }
      ],
      "payable": false,
      "stateMutability": "nonpayable",
      "type": "function"
    },
    {
      "constant": true,
      "inputs": [
        {
          "internalType": "uint256",
          "name": "_id",
          "type": "uint256"
        }
      ],
      "name": "getBlood",
      "outputs": [
        {
          "internalType": "string",
          "name": "",
          "type": "string"
        },
        {
          "internalType": "string",
          "name": "",
          "type": "string"
        },
        {
          "internalType": "string",
          "name": "",
          "type": "string"
        },
        {
          "internalType": "string",
          "name": "",
          "type": "string"
        },
        {
          "internalType": "string",
          "name": "",
          "type": "string"
        }
      ],
      "payable": false,
      "stateMutability": "view",
      "type": "function"
    },
    {
      "constant": true,
      "inputs": [
        {
          "internalType": "uint256",
          "name": "_id",
          "type": "uint256"
        }
      ],
      "name": "getBlood2",
      "outputs": [
        {
          "internalType": "uint256",
          "name": "",
          "type": "uint256"
        },
        {
          "internalType": "uint256",
          "name": "",
          "type": "uint256"
        }
      ],
      "payable": false,
      "stateMutability": "view",
      "type": "function"
    },
    {
      "constant": false,
      "inputs": [
        {
          "internalType": "uint256",
          "name": "_id",
          "type": "uint256"
        },
        {
          "internalType": "string",
          "name": "_oldUser",
          "type": "string"
        },
        {
          "internalType": "uint256",
          "name": "verified",
          "type": "uint256"
        },
        {
          "internalType": "string",
          "name": "_status",
          "type": "string"
        },
        {
          "internalType": "string",
          "name": "_newUser",
          "type": "string"
        }
      ],
      "name": "transferAsset",
      "outputs": [
        {
          "internalType": "string",
          "name": "",
          "type": "string"
        }
      ],
      "payable": false,
      "stateMutability": "nonpayable",
      "type": "function"
    },
    {
      "constant": true,
      "inputs": [],
      "name": "getBloodCount",
      "outputs": [
        {
          "internalType": "uint256",
          "name": "",
          "type": "uint256"
        }
      ],
      "payable": false,
      "stateMutability": "view",
      "type": "function"
    },
    {
      "constant": true,
      "inputs": [
        {
          "internalType": "uint256",
          "name": "_id",
          "type": "uint256"
        },
        {
          "internalType": "uint256",
          "name": "_statusCount",
          "type": "uint256"
        }
      ],
      "name": "getStatus",
      "outputs": [
        {
          "internalType": "uint256",
          "name": "",
          "type": "uint256"
        },
        {
          "internalType": "string",
          "name": "",
          "type": "string"
        },
        {
          "internalType": "string",
          "name": "",
          "type": "string"
        },
        {
          "internalType": "uint256",
          "name": "",
          "type": "uint256"
        }
      ],
      "payable": false,
      "stateMutability": "view",
      "type": "function"
    },
    {
      "constant": true,
      "inputs": [
        {
          "internalType": "address payable",
          "name": "user_address",
          "type": "address"
        }
      ],
      "name": "getIdentity",
      "outputs": [
        {
          "internalType": "bool",
          "name": "",
          "type": "bool"
        }
      ],
      "payable": false,
      "stateMutability": "view",
      "type": "function"
    },
    {
      "constant": false,
      "inputs": [
        {
          "internalType": "string",
          "name": "_name",
          "type": "string"
        },
        {
          "internalType": "address payable",
          "name": "user_address",
          "type": "address"
        },
        {
          "internalType": "string",
          "name": "_email",
          "type": "string"
        },
        {
          "internalType": "string",
          "name": "_password",
          "type": "string"
        },
        {
          "internalType": "string",
          "name": "_typeID",
          "type": "string"
        },
        {
          "internalType": "string",
          "name": "_address",
          "type": "string"
        },
        {
          "internalType": "string",
          "name": "_phone",
          "type": "string"
        }
      ],
      "name": "addidentity",
      "outputs": [],
      "payable": false,
      "stateMutability": "nonpayable",
      "type": "function"
    },
    {
      "constant": true,
      "inputs": [
        {
          "internalType": "address payable",
          "name": "_add",
          "type": "address"
        },
        {
          "internalType": "string",
          "name": "_email",
          "type": "string"
        },
        {
          "internalType": "string",
          "name": "_password",
          "type": "string"
        }
      ],
      "name": "getLogin",
      "outputs": [
        {
          "internalType": "string",
          "name": "",
          "type": "string"
        },
        {
          "internalType": "string",
          "name": "",
          "type": "string"
        },
        {
          "internalType": "string",
          "name": "",
          "type": "string"
        },
        {
          "internalType": "string",
          "name": "",
          "type": "string"
        }
      ],
      "payable": false,
      "stateMutability": "view",
      "type": "function"
    },
    {
      "constant": true,
      "inputs": [],
      "name": "getUserCount",
      "outputs": [
        {
          "internalType": "uint256",
          "name": "",
          "type": "uint256"
        }
      ],
      "payable": false,
      "stateMutability": "view",
      "type": "function"
    }
  ],
  "bytecode": "0x60806040526000600155600060035534801561001a57600080fd5b506138298061002a6000396000f3fe608060405234801561001057600080fd5b50600436106100ea5760003560e01c8063a745da651161008c578063b6e857c611610066578063b6e857c614610ecb578063be3cba0d14610ee9578063c88b53a514611218578063ed0bb96b14611484576100ea565b8063a745da6514610b0c578063acfabc1114610c37578063b5cb15f714610ead576100ea565b80634a544537116100c85780634a544537146101b257806351f650e6146104c957806358f0bf7e146104e75780638afd22c3146108b5576100ea565b806307973ccf146100ef5780632fea7b811461010d57806339b67b2814610169575b600080fd5b6100f7611846565b6040518082815260200191505060405180910390f35b61014f6004803603602081101561012357600080fd5b81019080803573ffffffffffffffffffffffffffffffffffffffff16906020019092919050505061184c565b604051808215151515815260200191505060405180910390f35b6101956004803603602081101561017f57600080fd5b81019080803590602001909291905050506118b6565b604051808381526020018281526020019250505060405180910390f35b6101f4600480360360208110156101c857600080fd5b81019080803573ffffffffffffffffffffffffffffffffffffffff1690602001909291905050506118ee565b604051808973ffffffffffffffffffffffffffffffffffffffff1673ffffffffffffffffffffffffffffffffffffffff1681526020018060200180602001806020018060200180602001806020018815151515815260200187810387528e818151815260200191508051906020019080838360005b83811015610284578082015181840152602081019050610269565b50505050905090810190601f1680156102b15780820380516001836020036101000a031916815260200191505b5087810386528d818151815260200191508051906020019080838360005b838110156102ea5780820151818401526020810190506102cf565b50505050905090810190601f1680156103175780820380516001836020036101000a031916815260200191505b5087810385528c818151815260200191508051906020019080838360005b83811015610350578082015181840152602081019050610335565b50505050905090810190601f16801561037d5780820380516001836020036101000a031916815260200191505b5087810384528b818151815260200191508051906020019080838360005b838110156103b657808201518184015260208101905061039b565b50505050905090810190601f1680156103e35780820380516001836020036101000a031916815260200191505b5087810383528a818151815260200191508051906020019080838360005b8381101561041c578082015181840152602081019050610401565b50505050905090810190601f1680156104495780820380516001836020036101000a031916815260200191505b50878103825289818151815260200191508051906020019080838360005b83811015610482578082015181840152602081019050610467565b50505050905090810190601f1680156104af5780820380516001836020036101000a031916815260200191505b509e50505050505050505050505050505060405180910390f35b6104d1611cf3565b6040518082815260200191505060405180910390f35b6108b3600480360360e08110156104fd57600080fd5b810190808035906020019064010000000081111561051a57600080fd5b82018360208201111561052c57600080fd5b8035906020019184600183028401116401000000008311171561054e57600080fd5b91908080601f016020809104026020016040519081016040528093929190818152602001838380828437600081840152601f19601f820116905080830192505050505050509192919290803573ffffffffffffffffffffffffffffffffffffffff169060200190929190803590602001906401000000008111156105d157600080fd5b8201836020820111156105e357600080fd5b8035906020019184600183028401116401000000008311171561060557600080fd5b91908080601f016020809104026020016040519081016040528093929190818152602001838380828437600081840152601f19601f8201169050808301925050505050505091929192908035906020019064010000000081111561066857600080fd5b82018360208201111561067a57600080fd5b8035906020019184600183028401116401000000008311171561069c57600080fd5b91908080601f016020809104026020016040519081016040528093929190818152602001838380828437600081840152601f19601f820116905080830192505050505050509192919290803590602001906401000000008111156106ff57600080fd5b82018360208201111561071157600080fd5b8035906020019184600183028401116401000000008311171561073357600080fd5b91908080601f016020809104026020016040519081016040528093929190818152602001838380828437600081840152601f19601f8201169050808301925050505050505091929192908035906020019064010000000081111561079657600080fd5b8201836020820111156107a857600080fd5b803590602001918460018302840111640100000000831117156107ca57600080fd5b91908080601f016020809104026020016040519081016040528093929190818152602001838380828437600081840152601f19601f8201169050808301925050505050505091929192908035906020019064010000000081111561082d57600080fd5b82018360208201111561083f57600080fd5b8035906020019184600183028401116401000000008311171561086157600080fd5b91908080601f016020809104026020016040519081016040528093929190818152602001838380828437600081840152601f19601f820116905080830192505050505050509192919290505050611cfd565b005b6108e1600480360360208110156108cb57600080fd5b8101908080359060200190929190505050611ec2565b60405180806020018060200180602001806020018060200186810386528b818151815260200191508051906020019080838360005b83811015610931578082015181840152602081019050610916565b50505050905090810190601f16801561095e5780820380516001836020036101000a031916815260200191505b5086810385528a818151815260200191508051906020019080838360005b8381101561099757808201518184015260208101905061097c565b50505050905090810190601f1680156109c45780820380516001836020036101000a031916815260200191505b50868103845289818151815260200191508051906020019080838360005b838110156109fd5780820151818401526020810190506109e2565b50505050905090810190601f168015610a2a5780820380516001836020036101000a031916815260200191505b50868103835288818151815260200191508051906020019080838360005b83811015610a63578082015181840152602081019050610a48565b50505050905090810190601f168015610a905780820380516001836020036101000a031916815260200191505b50868103825287818151815260200191508051906020019080838360005b83811015610ac9578082015181840152602081019050610aae565b50505050905090810190601f168015610af65780820380516001836020036101000a031916815260200191505b509a505050505050505050505060405180910390f35b610b4260048036036040811015610b2257600080fd5b810190808035906020019092919080359060200190929190505050612252565b604051808581526020018060200180602001848152602001838103835286818151815260200191508051906020019080838360005b83811015610b92578082015181840152602081019050610b77565b50505050905090810190601f168015610bbf5780820380516001836020036101000a031916815260200191505b50838103825285818151815260200191508051906020019080838360005b83811015610bf8578082015181840152602081019050610bdd565b50505050905090810190601f168015610c255780820380516001836020036101000a031916815260200191505b50965050505050505060405180910390f35b610e32600480360360a0811015610c4d57600080fd5b810190808035906020019092919080359060200190640100000000811115610c7457600080fd5b820183602082011115610c8657600080fd5b80359060200191846001830284011164010000000083111715610ca857600080fd5b91908080601f016020809104026020016040519081016040528093929190818152602001838380828437600081840152601f19601f8201169050808301925050505050505091929192908035906020019092919080359060200190640100000000811115610d1557600080fd5b820183602082011115610d2757600080fd5b80359060200191846001830284011164010000000083111715610d4957600080fd5b91908080601f016020809104026020016040519081016040528093929190818152602001838380828437600081840152601f19601f82011690508083019250505050505050919291929080359060200190640100000000811115610dac57600080fd5b820183602082011115610dbe57600080fd5b80359060200191846001830284011164010000000083111715610de057600080fd5b91908080601f016020809104026020016040519081016040528093929190818152602001838380828437600081840152601f19601f820116905080830192505050505050509192919290505050612418565b6040518080602001828103825283818151815260200191508051906020019080838360005b83811015610e72578082015181840152602081019050610e57565b50505050905090810190601f168015610e9f5780820380516001836020036101000a031916815260200191505b509250505060405180910390f35b610eb561286d565b6040518082815260200191505060405180910390f35b610ed3612877565b6040518082815260200191505060405180910390f35b61105960048036036060811015610eff57600080fd5b81019080803573ffffffffffffffffffffffffffffffffffffffff16906020019092919080359060200190640100000000811115610f3c57600080fd5b820183602082011115610f4e57600080fd5b80359060200191846001830284011164010000000083111715610f7057600080fd5b91908080601f016020809104026020016040519081016040528093929190818152602001838380828437600081840152601f19601f82011690508083019250505050505050919291929080359060200190640100000000811115610fd357600080fd5b820183602082011115610fe557600080fd5b8035906020019184600183028401116401000000008311171561100757600080fd5b91908080601f016020809104026020016040519081016040528093929190818152602001838380828437600081840152601f19601f82011690508083019250505050505050919291929050505061287d565b6040518080602001806020018060200180602001858103855289818151815260200191508051906020019080838360005b838110156110a557808201518184015260208101905061108a565b50505050905090810190601f1680156110d25780820380516001836020036101000a031916815260200191505b50858103845288818151815260200191508051906020019080838360005b8381101561110b5780820151818401526020810190506110f0565b50505050905090810190601f1680156111385780820380516001836020036101000a031916815260200191505b50858103835287818151815260200191508051906020019080838360005b83811015611171578082015181840152602081019050611156565b50505050905090810190601f16801561119e5780820380516001836020036101000a031916815260200191505b50858103825286818151815260200191508051906020019080838360005b838110156111d75780820151818401526020810190506111bc565b50505050905090810190601f1680156112045780820380516001836020036101000a031916815260200191505b509850505050505050505060405180910390f35b6112446004803603602081101561122e57600080fd5b81019080803590602001909291905050506130d0565b60405180898152602001806020018060200180602001806020018060200188815260200187815260200186810386528d818151815260200191508051906020019080838360005b838110156112a657808201518184015260208101905061128b565b50505050905090810190601f1680156112d35780820380516001836020036101000a031916815260200191505b5086810385528c818151815260200191508051906020019080838360005b8381101561130c5780820151818401526020810190506112f1565b50505050905090810190601f1680156113395780820380516001836020036101000a031916815260200191505b5086810384528b818151815260200191508051906020019080838360005b83811015611372578082015181840152602081019050611357565b50505050905090810190601f16801561139f5780820380516001836020036101000a031916815260200191505b5086810383528a818151815260200191508051906020019080838360005b838110156113d85780820151818401526020810190506113bd565b50505050905090810190601f1680156114055780820380516001836020036101000a031916815260200191505b50868103825289818151815260200191508051906020019080838360005b8381101561143e578082015181840152602081019050611423565b50505050905090810190601f16801561146b5780820380516001836020036101000a031916815260200191505b509d505050505050505050505050505060405180910390f35b611830600480360360c081101561149a57600080fd5b81019080803590602001906401000000008111156114b757600080fd5b8201836020820111156114c957600080fd5b803590602001918460018302840111640100000000831117156114eb57600080fd5b91908080601f016020809104026020016040519081016040528093929190818152602001838380828437600081840152601f19601f8201169050808301925050505050505091929192908035906020019064010000000081111561154e57600080fd5b82018360208201111561156057600080fd5b8035906020019184600183028401116401000000008311171561158257600080fd5b91908080601f016020809104026020016040519081016040528093929190818152602001838380828437600081840152601f19601f820116905080830192505050505050509192919290803590602001906401000000008111156115e557600080fd5b8201836020820111156115f757600080fd5b8035906020019184600183028401116401000000008311171561161957600080fd5b91908080601f016020809104026020016040519081016040528093929190818152602001838380828437600081840152601f19601f8201169050808301925050505050505091929192908035906020019064010000000081111561167c57600080fd5b82018360208201111561168e57600080fd5b803590602001918460018302840111640100000000831117156116b057600080fd5b91908080601f016020809104026020016040519081016040528093929190818152602001838380828437600081840152601f19601f8201169050808301925050505050505091929192908035906020019064010000000081111561171357600080fd5b82018360208201111561172557600080fd5b8035906020019184600183028401116401000000008311171561174757600080fd5b91908080601f016020809104026020016040519081016040528093929190818152602001838380828437600081840152601f19601f820116905080830192505050505050509192919290803590602001906401000000008111156117aa57600080fd5b8201836020820111156117bc57600080fd5b803590602001918460018302840111640100000000831117156117de57600080fd5b91908080601f016020809104026020016040519081016040528093929190818152602001838380828437600081840152601f19601f820116905080830192505050505050509192919290505050613410565b6040518082815260200191505060405180910390f35b60035481565b6000600260008373ffffffffffffffffffffffffffffffffffffffff1673ffffffffffffffffffffffffffffffffffffffff16815260200190815260200160002060070160009054906101000a900460ff16156118ac57600190506118b1565b600090505b919050565b600080600080848152602001908152602001600020600601546000808581526020019081526020016000206007015491509150915091565b60026020528060005260406000206000915090508060000160009054906101000a900473ffffffffffffffffffffffffffffffffffffffff1690806001018054600181600116156101000203166002900480601f0160208091040260200160405190810160405280929190818152602001828054600181600116156101000203166002900480156119c05780601f10611995576101008083540402835291602001916119c0565b820191906000526020600020905b8154815290600101906020018083116119a357829003601f168201915b505050505090806002018054600181600116156101000203166002900480601f016020809104026020016040519081016040528092919081815260200182805460018160011615610100020316600290048015611a5e5780601f10611a3357610100808354040283529160200191611a5e565b820191906000526020600020905b815481529060010190602001808311611a4157829003601f168201915b505050505090806003018054600181600116156101000203166002900480601f016020809104026020016040519081016040528092919081815260200182805460018160011615610100020316600290048015611afc5780601f10611ad157610100808354040283529160200191611afc565b820191906000526020600020905b815481529060010190602001808311611adf57829003601f168201915b505050505090806004018054600181600116156101000203166002900480601f016020809104026020016040519081016040528092919081815260200182805460018160011615610100020316600290048015611b9a5780601f10611b6f57610100808354040283529160200191611b9a565b820191906000526020600020905b815481529060010190602001808311611b7d57829003601f168201915b505050505090806005018054600181600116156101000203166002900480601f016020809104026020016040519081016040528092919081815260200182805460018160011615610100020316600290048015611c385780601f10611c0d57610100808354040283529160200191611c38565b820191906000526020600020905b815481529060010190602001808311611c1b57829003601f168201915b505050505090806006018054600181600116156101000203166002900480601f016020809104026020016040519081016040528092919081815260200182805460018160011615610100020316600290048015611cd65780601f10611cab57610100808354040283529160200191611cd6565b820191906000526020600020905b815481529060010190602001808311611cb957829003601f168201915b5050505050908060070160009054906101000a900460ff16905088565b6000600154905090565b6003600081548092919060010191905055506040518061010001604052808773ffffffffffffffffffffffffffffffffffffffff16815260200186815260200185815260200188815260200184815260200183815260200182815260200160011515815250600260008873ffffffffffffffffffffffffffffffffffffffff1673ffffffffffffffffffffffffffffffffffffffff16815260200190815260200160002060008201518160000160006101000a81548173ffffffffffffffffffffffffffffffffffffffff021916908373ffffffffffffffffffffffffffffffffffffffff1602179055506020820151816001019080519060200190611e04929190613727565b506040820151816002019080519060200190611e21929190613727565b506060820151816003019080519060200190611e3e929190613727565b506080820151816004019080519060200190611e5b929190613727565b5060a0820151816005019080519060200190611e78929190613727565b5060c0820151816006019080519060200190611e95929190613727565b5060e08201518160070160006101000a81548160ff02191690831515021790555090505050505050505050565b60608060608060606000808781526020019081526020016000206001016000808881526020019081526020016000206002016000808981526020019081526020016000206003016000808a81526020019081526020016000206004016000808b8152602001908152602001600020600501848054600181600116156101000203166002900480601f016020809104026020016040519081016040528092919081815260200182805460018160011615610100020316600290048015611fc85780601f10611f9d57610100808354040283529160200191611fc8565b820191906000526020600020905b815481529060010190602001808311611fab57829003601f168201915b50505050509450838054600181600116156101000203166002900480601f0160208091040260200160405190810160405280929190818152602001828054600181600116156101000203166002900480156120645780601f1061203957610100808354040283529160200191612064565b820191906000526020600020905b81548152906001019060200180831161204757829003601f168201915b50505050509350828054600181600116156101000203166002900480601f0160208091040260200160405190810160405280929190818152602001828054600181600116156101000203166002900480156121005780601f106120d557610100808354040283529160200191612100565b820191906000526020600020905b8154815290600101906020018083116120e357829003601f168201915b50505050509250818054600181600116156101000203166002900480601f01602080910402602001604051908101604052809291908181526020018280546001816001161561010002031660029004801561219c5780601f106121715761010080835404028352916020019161219c565b820191906000526020600020905b81548152906001019060200180831161217f57829003601f168201915b50505050509150808054600181600116156101000203166002900480601f0160208091040260200160405190810160405280929190818152602001828054600181600116156101000203166002900480156122385780601f1061220d57610100808354040283529160200191612238565b820191906000526020600020905b81548152906001019060200180831161221b57829003601f168201915b505050505090509450945094509450945091939590929450565b600060608060006122616137a7565b600080888152602001908152602001600020600801600087815260200190815260200160002060405180608001604052908160008201548152602001600182018054600181600116156101000203166002900480601f0160208091040260200160405190810160405280929190818152602001828054600181600116156101000203166002900480156123355780601f1061230a57610100808354040283529160200191612335565b820191906000526020600020905b81548152906001019060200180831161231857829003601f168201915b50505050508152602001600282018054600181600116156101000203166002900480601f0160208091040260200160405190810160405280929190818152602001828054600181600116156101000203166002900480156123d75780601f106123ac576101008083540402835291602001916123d7565b820191906000526020600020905b8154815290600101906020018083116123ba57829003601f168201915b505050505081526020016003820154815250509050806000015181602001518260400151836060015182925081915094509450945094505092959194509250565b60606002856040516020018082805190602001908083835b602083106124535780518252602082019150602081019050602083039250612430565b6001836020036101000a0380198251168184511680821785525050505050509050019150506040516020818303038152906040526040518082805190602001908083835b602083106124ba5780518252602082019150602081019050602083039250612497565b6001836020036101000a038019825116818451168082178552505050505050905001915050602060405180830381855afa1580156124fc573d6000803e3d6000fd5b5050506040513d602081101561251157600080fd5b8101908080519060200190929190505050600260008089815260200190815260200160002060080160008060008b815260200190815260200160002060070154815260200190815260200160002060020160405160200180828054600181600116156101000203166002900480156125c05780601f1061259e5761010080835404028352918201916125c0565b820191906000526020600020905b8154815290600101906020018083116125ac575b50509150506040516020818303038152906040526040518082805190602001908083835b6020831061260757805182526020820191506020810190506020830392506125e4565b6001836020036101000a038019825116818451168082178552505050505050905001915050602060405180830381855afa158015612649573d6000803e3d6000fd5b5050506040513d602081101561265e57600080fd5b81019080805190602001909291905050501461267957600080fd5b6000808781526020019081526020016000206007016000815480929190600101919050555060405180608001604052804281526020018481526020018381526020018581525060008088815260200190815260200160002060080160008060008a8152602001908152602001600020600701548152602001908152602001600020600082015181600001556020820151816001019080519060200190612720929190613727565b50604082015181600201908051906020019061273d929190613727565b50606082015181600301559050507f5d821b8b6ce18465607d9c51957a48484030b98fc16bf4b5a700a595f2b2bd6f86838686604051808581526020018060200184815260200180602001838103835286818151815260200191508051906020019080838360005b838110156127c05780820151818401526020810190506127a5565b50505050905090810190601f1680156127ed5780820380516001836020036101000a031916815260200191505b50838103825284818151815260200191508051906020019080838360005b8381101561282657808201518184015260208101905061280b565b50505050905090810190601f1680156128535780820380516001836020036101000a031916815260200191505b50965050505050505060405180910390a195945050505050565b6000600354905090565b60015481565b6060806060806002866040516020018082805190602001908083835b602083106128bc5780518252602082019150602081019050602083039250612899565b6001836020036101000a0380198251168184511680821785525050505050509050019150506040516020818303038152906040526040518082805190602001908083835b602083106129235780518252602082019150602081019050602083039250612900565b6001836020036101000a038019825116818451168082178552505050505050905001915050602060405180830381855afa158015612965573d6000803e3d6000fd5b5050506040513d602081101561297a57600080fd5b810190808051906020019092919050505060028060008a73ffffffffffffffffffffffffffffffffffffffff1673ffffffffffffffffffffffffffffffffffffffff1681526020019081526020016000206001016040516020018082805460018160011615610100020316600290048015612a2c5780601f10612a0a576101008083540402835291820191612a2c565b820191906000526020600020905b815481529060010190602001808311612a18575b50509150506040516020818303038152906040526040518082805190602001908083835b60208310612a735780518252602082019150602081019050602083039250612a50565b6001836020036101000a038019825116818451168082178552505050505050905001915050602060405180830381855afa158015612ab5573d6000803e3d6000fd5b5050506040513d6020811015612aca57600080fd5b810190808051906020019092919050505014612ae557600080fd5b6002856040516020018082805190602001908083835b60208310612b1e5780518252602082019150602081019050602083039250612afb565b6001836020036101000a0380198251168184511680821785525050505050509050019150506040516020818303038152906040526040518082805190602001908083835b60208310612b855780518252602082019150602081019050602083039250612b62565b6001836020036101000a038019825116818451168082178552505050505050905001915050602060405180830381855afa158015612bc7573d6000803e3d6000fd5b5050506040513d6020811015612bdc57600080fd5b810190808051906020019092919050505060028060008a73ffffffffffffffffffffffffffffffffffffffff1673ffffffffffffffffffffffffffffffffffffffff1681526020019081526020016000206002016040516020018082805460018160011615610100020316600290048015612c8e5780601f10612c6c576101008083540402835291820191612c8e565b820191906000526020600020905b815481529060010190602001808311612c7a575b50509150506040516020818303038152906040526040518082805190602001908083835b60208310612cd55780518252602082019150602081019050602083039250612cb2565b6001836020036101000a038019825116818451168082178552505050505050905001915050602060405180830381855afa158015612d17573d6000803e3d6000fd5b5050506040513d6020811015612d2c57600080fd5b810190808051906020019092919050505014612d4757600080fd5b600260008873ffffffffffffffffffffffffffffffffffffffff1673ffffffffffffffffffffffffffffffffffffffff168152602001908152602001600020600301600260008973ffffffffffffffffffffffffffffffffffffffff1673ffffffffffffffffffffffffffffffffffffffff168152602001908152602001600020600401600260008a73ffffffffffffffffffffffffffffffffffffffff1673ffffffffffffffffffffffffffffffffffffffff168152602001908152602001600020600501600260008b73ffffffffffffffffffffffffffffffffffffffff1673ffffffffffffffffffffffffffffffffffffffff168152602001908152602001600020600601838054600181600116156101000203166002900480601f016020809104026020016040519081016040528092919081815260200182805460018160011615610100020316600290048015612ee45780601f10612eb957610100808354040283529160200191612ee4565b820191906000526020600020905b815481529060010190602001808311612ec757829003601f168201915b50505050509350828054600181600116156101000203166002900480601f016020809104026020016040519081016040528092919081815260200182805460018160011615610100020316600290048015612f805780601f10612f5557610100808354040283529160200191612f80565b820191906000526020600020905b815481529060010190602001808311612f6357829003601f168201915b50505050509250818054600181600116156101000203166002900480601f01602080910402602001604051908101604052809291908181526020018280546001816001161561010002031660029004801561301c5780601f10612ff15761010080835404028352916020019161301c565b820191906000526020600020905b815481529060010190602001808311612fff57829003601f168201915b50505050509150808054600181600116156101000203166002900480601f0160208091040260200160405190810160405280929190818152602001828054600181600116156101000203166002900480156130b85780601f1061308d576101008083540402835291602001916130b8565b820191906000526020600020905b81548152906001019060200180831161309b57829003601f168201915b50505050509050935093509350935093509350935093565b6000602052806000526040600020600091509050806000015490806001018054600181600116156101000203166002900480601f0160208091040260200160405190810160405280929190818152602001828054600181600116156101000203166002900480156131825780601f1061315757610100808354040283529160200191613182565b820191906000526020600020905b81548152906001019060200180831161316557829003601f168201915b505050505090806002018054600181600116156101000203166002900480601f0160208091040260200160405190810160405280929190818152602001828054600181600116156101000203166002900480156132205780601f106131f557610100808354040283529160200191613220565b820191906000526020600020905b81548152906001019060200180831161320357829003601f168201915b505050505090806003018054600181600116156101000203166002900480601f0160208091040260200160405190810160405280929190818152602001828054600181600116156101000203166002900480156132be5780601f10613293576101008083540402835291602001916132be565b820191906000526020600020905b8154815290600101906020018083116132a157829003601f168201915b505050505090806004018054600181600116156101000203166002900480601f01602080910402602001604051908101604052809291908181526020018280546001816001161561010002031660029004801561335c5780601f106133315761010080835404028352916020019161335c565b820191906000526020600020905b81548152906001019060200180831161333f57829003601f168201915b505050505090806005018054600181600116156101000203166002900480601f0160208091040260200160405190810160405280929190818152602001828054600181600116156101000203166002900480156133fa5780601f106133cf576101008083540402835291602001916133fa565b820191906000526020600020905b8154815290600101906020018083116133dd57829003601f168201915b5050505050908060060154908060070154905088565b60006001600081548092919060010191905055506040518061010001604052806001548152602001888152602001878152602001868152602001858152602001848152602001600081526020016000815250600080600154815260200190815260200160002060008201518160000155602082015181600101908051906020019061349c929190613727565b5060408201518160020190805190602001906134b9929190613727565b5060608201518160030190805190602001906134d6929190613727565b5060808201518160040190805190602001906134f3929190613727565b5060a0820151816005019080519060200190613510929190613727565b5060c0820151816006015560e08201518160070155905050600080600154815260200190815260200160002060070160008154809291906001019190505550604051806080016040528042815260200183815260200186815260200160008152506000806001548152602001908152602001600020600801600080600060015481526020019081526020016000206007015481526020019081526020016000206000820151816000015560208201518160010190805190602001906135d6929190613727565b5060408201518160020190805190602001906135f3929190613727565b50606082015181600301559050507f3c958191e6ccab503ae675402e1c996a40a0e790bdd851abbd16d3b127e0f51660015486846000604051808581526020018060200180602001848152602001838103835286818151815260200191508051906020019080838360005b8381101561367957808201518184015260208101905061365e565b50505050905090810190601f1680156136a65780820380516001836020036101000a031916815260200191505b50838103825285818151815260200191508051906020019080838360005b838110156136df5780820151818401526020810190506136c4565b50505050905090810190601f16801561370c5780820380516001836020036101000a031916815260200191505b50965050505050505060405180910390a19695505050505050565b828054600181600116156101000203166002900490600052602060002090601f016020900481019282601f1061376857805160ff1916838001178555613796565b82800160010185558215613796579182015b8281111561379557825182559160200191906001019061377a565b5b5090506137a391906137cf565b5090565b6040518060800160405280600081526020016060815260200160608152602001600081525090565b6137f191905b808211156137ed5760008160009055506001016137d5565b5090565b9056fea265627a7a723158206d1e7953e0046dfade04377f98700aef7890e64848f62b9524008e79aabb611964736f6c63430005100032",
  "source": "// SPDX-License-Identifier: MIT\npragma solidity >=0.4.22 <0.9.0;\n\nlibrary BloodUnitLibrary {\n    struct Status {\n        uint256 time;\n        string status;\n        string owner;\n        uint256 verified;\n    }\n    struct BloodUnit {\n        uint256 id;\n        string uniqueid;\n        string aadhar;\n        string curr_location;\n        string blood_group;\n        string expiry_date;\n        uint256 verified;\n        uint256 statusCount;\n        mapping(uint256 => Status) status;\n    }\n\n    struct User {\n        // uint id;\n        address payable user_address;\n        string email;\n        string password;\n        string name;\n        string typeID;\n        string addressUser;\n        string phone;\n        bool exists;\n    }\n}\n\ncontract BloodUnitTracker {\n    mapping(uint256 => BloodUnitLibrary.BloodUnit) public BloodStore;\n\n    uint256 public bloodCount = 0;\n\n    function createAsset(\n        string memory _uniqueid,\n        string memory _aadhar,\n        string memory _curr_location,\n        string memory _blood_group,\n        string memory _expiry_date,\n        string memory _status\n    ) public returns (uint256) {\n        bloodCount++;\n        BloodStore[bloodCount] = BloodUnitLibrary.BloodUnit(\n            bloodCount,\n            _uniqueid,\n            _aadhar,\n            _curr_location,\n            _blood_group,\n            _expiry_date,\n            0,\n            0\n        );\n        BloodStore[bloodCount].statusCount++;\n        BloodStore[bloodCount].status[\n            BloodStore[bloodCount].statusCount\n        ] = BloodUnitLibrary.Status(block.timestamp, _status, _curr_location, 0);\n        emit BloodCreate(bloodCount, _curr_location, _status, 0);\n    }\n\n    function getBlood(uint256 _id)\n        public\n        view\n        returns (\n            string memory,\n            string memory,\n            string memory,\n            string memory,\n            string memory\n        )\n    {\n        return (\n            BloodStore[_id].uniqueid,\n            BloodStore[_id].aadhar,\n            BloodStore[_id].curr_location,\n            BloodStore[_id].blood_group,\n            BloodStore[_id].expiry_date\n        );\n    }\n\n    function getBlood2(uint256 _id) public view returns (uint256, uint256) {\n        return (BloodStore[_id].verified, BloodStore[_id].statusCount);\n    }\n\n    function transferAsset(\n        uint256 _id,\n        string memory _oldUser,\n        uint256 verified,\n        string memory _status,\n        string memory _newUser\n    ) public returns (string memory) {\n        require(\n            sha256(\n                abi.encodePacked(\n                    (BloodStore[_id].status[BloodStore[_id].statusCount].owner)\n                )\n            ) == sha256(abi.encodePacked((_oldUser)))\n        );\n        BloodStore[_id].statusCount++;\n        BloodStore[_id].status[BloodStore[_id].statusCount] = BloodUnitLibrary\n            .Status(block.timestamp, _status, _newUser, verified);\n        emit BloodTransfer(_id, _newUser, verified, _status);\n    }\n\n    function getBloodCount() public view returns (uint256) {\n        return bloodCount;\n    }\n\n    function getStatus(uint256 _id, uint256 _statusCount)\n        public\n        view\n        returns (\n            uint256,\n            string memory,\n            string memory,\n            uint256\n        )\n    {\n        BloodUnitLibrary.Status memory s = BloodStore[_id].status[_statusCount];\n        return (s.time, s.status, s.owner, s.verified);\n    }\n\n    event BloodTransfer(\n        uint256 id,\n        string newOwner,\n        uint256 verified,\n        string status\n    );\n\n    event BloodCreate(\n        uint256 id,\n        string curr_location,\n        string status,\n        uint256 verified\n    );\n\n    mapping(address => BloodUnitLibrary.User) public UserStore;\n    \n    uint256 public userCount = 0;\n\n\n    function getIdentity(address payable user_address) public view returns (bool) {\n        \n        \n        if(UserStore[user_address].exists)\n            return true;\n        return false;\n    }\n\n    function addidentity(\n        string memory _name,\n        address payable user_address,\n        string memory _email,\n        string memory _password,\n        string memory _typeID,\n        string memory _address,\n        string memory _phone\n    ) public {\n        userCount++;\n        UserStore[user_address] = BloodUnitLibrary.User(\n            user_address,\n            _email,\n            _password,\n            _name,\n            _typeID,\n            _address,\n            _phone,\n            true\n        );\n    }\n    \n    function getLogin(\n        address payable _add,\n        string memory _email,\n        string memory _password\n    )\n        public\n        view\n        returns (\n            string memory,\n            string memory,\n            string memory,\n            string memory\n        )\n    {\n        require(\n            sha256(abi.encodePacked((UserStore[_add].email))) ==\n                sha256(abi.encodePacked((_email)))\n        );\n        require(\n            sha256(abi.encodePacked((UserStore[_add].password))) ==\n                sha256(abi.encodePacked((_password)))\n        );\n        return (\n            UserStore[_add].name,\n            UserStore[_add].typeID,\n            UserStore[_add].addressUser,\n            UserStore[_add].phone\n        );\n    }\n\n    function getUserCount() public view returns (uint256) {\n        return userCount;\n    }\n}",
  "sourcePath": "/Users/keshavgoyal/Desktop/rakt-daan/src/contracts/BloodUnitTracker.sol",
  "compiler": {
    "name": "solc",
    "version": "0.5.16+commit.9c3226ce.Emscripten.clang"
  },
  "schemaVersion": "3.4.11",
  "updatedAt": "2023-02-04T17:33:22.778Z",
  "devdoc": {
    "methods": {}
  },
  "userdoc": {
    "methods": {}
  }
}