{
  "contractName": "BloodUnitTracker",
  "abi": [
    {
      "anonymous": false,
      "inputs": [
        {
          "indexed": false,
          "internalType": "uint256",
          "name": "id",
          "type": "uint256"
        },
        {
          "indexed": false,
          "internalType": "string",
          "name": "newOwner",
          "type": "string"
        },
        {
          "indexed": false,
          "internalType": "uint256",
          "name": "verified",
          "type": "uint256"
        },
        {
          "indexed": false,
          "internalType": "string",
          "name": "status",
          "type": "string"
        }
      ],
      "name": "BloodTransfer",
      "type": "event"
    },
    {
      "anonymous": false,
      "inputs": [
        {
          "indexed": false,
          "internalType": "uint256",
          "name": "id",
          "type": "uint256"
        },
        {
          "indexed": false,
          "internalType": "string",
          "name": "curr_owner",
          "type": "string"
        },
        {
          "indexed": false,
          "internalType": "string",
          "name": "curr_owner_add",
          "type": "string"
        },
        {
          "indexed": false,
          "internalType": "uint256",
          "name": "verified",
          "type": "uint256"
        }
      ],
      "name": "BloodUnitCreate",
      "type": "event"
    },
    {
      "constant": true,
      "inputs": [
        {
          "internalType": "uint256",
          "name": "",
          "type": "uint256"
        }
      ],
      "name": "BloodStore",
      "outputs": [
        {
          "internalType": "uint256",
          "name": "id",
          "type": "uint256"
        },
        {
          "internalType": "string",
          "name": "uniqueid",
          "type": "string"
        },
        {
          "internalType": "string",
          "name": "aadhar",
          "type": "string"
        },
        {
          "internalType": "string",
          "name": "blood_group",
          "type": "string"
        },
        {
          "internalType": "string",
          "name": "expiry_date",
          "type": "string"
        },
        {
          "internalType": "uint256",
          "name": "statusCount",
          "type": "uint256"
        },
        {
          "internalType": "bool",
          "name": "exists",
          "type": "bool"
        }
      ],
      "payable": false,
      "stateMutability": "view",
      "type": "function"
    },
    {
      "constant": true,
      "inputs": [
        {
          "internalType": "address",
          "name": "",
          "type": "address"
        }
      ],
      "name": "UserStore",
      "outputs": [
        {
          "internalType": "address payable",
          "name": "user_address",
          "type": "address"
        },
        {
          "internalType": "string",
          "name": "email",
          "type": "string"
        },
        {
          "internalType": "string",
          "name": "password",
          "type": "string"
        },
        {
          "internalType": "string",
          "name": "name",
          "type": "string"
        },
        {
          "internalType": "string",
          "name": "addressUser",
          "type": "string"
        },
        {
          "internalType": "string",
          "name": "coords",
          "type": "string"
        },
        {
          "internalType": "string",
          "name": "typeID",
          "type": "string"
        },
        {
          "internalType": "bool",
          "name": "exists",
          "type": "bool"
        }
      ],
      "payable": false,
      "stateMutability": "view",
      "type": "function"
    },
    {
      "constant": true,
      "inputs": [],
      "name": "bloodCount",
      "outputs": [
        {
          "internalType": "uint256",
          "name": "",
          "type": "uint256"
        }
      ],
      "payable": false,
      "stateMutability": "view",
      "type": "function"
    },
    {
      "constant": true,
      "inputs": [
        {
          "internalType": "string",
          "name": "",
          "type": "string"
        }
      ],
      "name": "idToBloodId",
      "outputs": [
        {
          "internalType": "uint256",
          "name": "",
          "type": "uint256"
        }
      ],
      "payable": false,
      "stateMutability": "view",
      "type": "function"
    },
    {
      "constant": true,
      "inputs": [],
      "name": "userCount",
      "outputs": [
        {
          "internalType": "uint256",
          "name": "",
          "type": "uint256"
        }
      ],
      "payable": false,
      "stateMutability": "view",
      "type": "function"
    },
    {
      "constant": false,
      "inputs": [
        {
          "internalType": "string",
          "name": "_uniqueid",
          "type": "string"
        },
        {
          "internalType": "string",
          "name": "_aadhar",
          "type": "string"
        },
        {
          "internalType": "string",
          "name": "_blood_group",
          "type": "string"
        },
        {
          "internalType": "string",
          "name": "_expiry_date",
          "type": "string"
        },
        {
          "internalType": "string",
          "name": "_cur_owner",
          "type": "string"
        },
        {
          "internalType": "string",
          "name": "_cur_owner_address",
          "type": "string"
        }
      ],
      "name": "addBloodUnit",
      "outputs": [
        {
          "internalType": "uint256",
          "name": "",
          "type": "uint256"
        }
      ],
      "payable": false,
      "stateMutability": "nonpayable",
      "type": "function"
    },
    {
      "constant": true,
      "inputs": [
        {
          "internalType": "string",
          "name": "_id",
          "type": "string"
        }
      ],
      "name": "bloodExist",
      "outputs": [
        {
          "internalType": "bool",
          "name": "",
          "type": "bool"
        }
      ],
      "payable": false,
      "stateMutability": "view",
      "type": "function"
    },
    {
      "constant": true,
      "inputs": [
        {
          "internalType": "uint256",
          "name": "_id",
          "type": "uint256"
        }
      ],
      "name": "getBloodData",
      "outputs": [
        {
          "internalType": "string",
          "name": "",
          "type": "string"
        },
        {
          "internalType": "string",
          "name": "",
          "type": "string"
        },
        {
          "internalType": "string",
          "name": "",
          "type": "string"
        },
        {
          "internalType": "string",
          "name": "",
          "type": "string"
        }
      ],
      "payable": false,
      "stateMutability": "view",
      "type": "function"
    },
    {
      "constant": true,
      "inputs": [
        {
          "internalType": "uint256",
          "name": "_id",
          "type": "uint256"
        }
      ],
      "name": "getBloodStatusCount",
      "outputs": [
        {
          "internalType": "uint256",
          "name": "",
          "type": "uint256"
        }
      ],
      "payable": false,
      "stateMutability": "view",
      "type": "function"
    },
    {
      "constant": false,
      "inputs": [
        {
          "internalType": "uint256",
          "name": "_id",
          "type": "uint256"
        },
        {
          "internalType": "string",
          "name": "_oldUser",
          "type": "string"
        },
        {
          "internalType": "uint256",
          "name": "verified",
          "type": "uint256"
        },
        {
          "internalType": "string",
          "name": "_status",
          "type": "string"
        },
        {
          "internalType": "string",
          "name": "_newUser",
          "type": "string"
        }
      ],
      "name": "transferAsset",
      "outputs": [
        {
          "internalType": "string",
          "name": "",
          "type": "string"
        }
      ],
      "payable": false,
      "stateMutability": "nonpayable",
      "type": "function"
    },
    {
      "constant": true,
      "inputs": [],
      "name": "getBloodCount",
      "outputs": [
        {
          "internalType": "uint256",
          "name": "",
          "type": "uint256"
        }
      ],
      "payable": false,
      "stateMutability": "view",
      "type": "function"
    },
    {
      "constant": true,
      "inputs": [
        {
          "internalType": "uint256",
          "name": "_id",
          "type": "uint256"
        },
        {
          "internalType": "uint256",
          "name": "_status_count",
          "type": "uint256"
        }
      ],
      "name": "getBloodStatus",
      "outputs": [
        {
          "internalType": "uint256",
          "name": "",
          "type": "uint256"
        },
        {
          "internalType": "string",
          "name": "",
          "type": "string"
        },
        {
          "internalType": "string",
          "name": "",
          "type": "string"
        },
        {
          "internalType": "uint256",
          "name": "",
          "type": "uint256"
        }
      ],
      "payable": false,
      "stateMutability": "view",
      "type": "function"
    },
    {
      "constant": true,
      "inputs": [
        {
          "internalType": "address payable",
          "name": "user_address",
          "type": "address"
        }
      ],
      "name": "getIdentity",
      "outputs": [
        {
          "internalType": "bool",
          "name": "",
          "type": "bool"
        }
      ],
      "payable": false,
      "stateMutability": "view",
      "type": "function"
    },
    {
      "constant": false,
      "inputs": [
        {
          "internalType": "string",
          "name": "_name",
          "type": "string"
        },
        {
          "internalType": "address payable",
          "name": "user_address",
          "type": "address"
        },
        {
          "internalType": "string",
          "name": "_email",
          "type": "string"
        },
        {
          "internalType": "string",
          "name": "_password",
          "type": "string"
        },
        {
          "internalType": "string",
          "name": "_address",
          "type": "string"
        },
        {
          "internalType": "string",
          "name": "_coords",
          "type": "string"
        },
        {
          "internalType": "string",
          "name": "_typeID",
          "type": "string"
        }
      ],
      "name": "addIdentity",
      "outputs": [],
      "payable": false,
      "stateMutability": "nonpayable",
      "type": "function"
    },
    {
      "constant": true,
      "inputs": [
        {
          "internalType": "address payable",
          "name": "_user_add",
          "type": "address"
        },
        {
          "internalType": "string",
          "name": "_email",
          "type": "string"
        },
        {
          "internalType": "string",
          "name": "_password",
          "type": "string"
        }
      ],
      "name": "getUser",
      "outputs": [
        {
          "internalType": "string",
          "name": "",
          "type": "string"
        },
        {
          "internalType": "string",
          "name": "",
          "type": "string"
        },
        {
          "internalType": "string",
          "name": "",
          "type": "string"
        },
        {
          "internalType": "string",
          "name": "",
          "type": "string"
        }
      ],
      "payable": false,
      "stateMutability": "view",
      "type": "function"
    },
    {
      "constant": true,
      "inputs": [],
      "name": "getUserCount",
      "outputs": [
        {
          "internalType": "uint256",
          "name": "",
          "type": "uint256"
        }
      ],
      "payable": false,
      "stateMutability": "view",
      "type": "function"
    }
  ],
  "bytecode": "0x60806040526000600255600060045534801561001a57600080fd5b506138df8061002a6000396000f3fe608060405234801561001057600080fd5b50600436106101005760003560e01c806374b5d2a611610097578063b5cb15f711610066578063b5cb15f714611614578063b6e857c614611632578063c615a13f14611650578063c88b53a51461171f57610100565b806374b5d2a614610db1578063887beac114610f9c578063928122361461106f578063acfabc111461139e57610100565b80634a544537116100d35780634a5445371461066c57806351f650e6146109835780636272e294146109a157806369978f26146109e357610100565b806307973ccf146101055780630c9e861a14610123578063255d7fba1461024e5780632fea7b8114610610575b600080fd5b61010d611923565b6040518082815260200191505060405180910390f35b6101596004803603604081101561013957600080fd5b810190808035906020019092919080359060200190929190505050611929565b604051808581526020018060200180602001848152602001838103835286818151815260200191508051906020019080838360005b838110156101a957808201518184015260208101905061018e565b50505050905090810190601f1680156101d65780820380516001836020036101000a031916815260200191505b50838103825285818151815260200191508051906020019080838360005b8381101561020f5780820151818401526020810190506101f4565b50505050905090810190601f16801561023c5780820380516001836020036101000a031916815260200191505b50965050505050505060405180910390f35b6105fa600480360360c081101561026457600080fd5b810190808035906020019064010000000081111561028157600080fd5b82018360208201111561029357600080fd5b803590602001918460018302840111640100000000831117156102b557600080fd5b91908080601f016020809104026020016040519081016040528093929190818152602001838380828437600081840152601f19601f8201169050808301925050505050505091929192908035906020019064010000000081111561031857600080fd5b82018360208201111561032a57600080fd5b8035906020019184600183028401116401000000008311171561034c57600080fd5b91908080601f016020809104026020016040519081016040528093929190818152602001838380828437600081840152601f19601f820116905080830192505050505050509192919290803590602001906401000000008111156103af57600080fd5b8201836020820111156103c157600080fd5b803590602001918460018302840111640100000000831117156103e357600080fd5b91908080601f016020809104026020016040519081016040528093929190818152602001838380828437600081840152601f19601f8201169050808301925050505050505091929192908035906020019064010000000081111561044657600080fd5b82018360208201111561045857600080fd5b8035906020019184600183028401116401000000008311171561047a57600080fd5b91908080601f016020809104026020016040519081016040528093929190818152602001838380828437600081840152601f19601f820116905080830192505050505050509192919290803590602001906401000000008111156104dd57600080fd5b8201836020820111156104ef57600080fd5b8035906020019184600183028401116401000000008311171561051157600080fd5b91908080601f016020809104026020016040519081016040528093929190818152602001838380828437600081840152601f19601f8201169050808301925050505050505091929192908035906020019064010000000081111561057457600080fd5b82018360208201111561058657600080fd5b803590602001918460018302840111640100000000831117156105a857600080fd5b91908080601f016020809104026020016040519081016040528093929190818152602001838380828437600081840152601f19601f820116905080830192505050505050509192919290505050611aef565b6040518082815260200191505060405180910390f35b6106526004803603602081101561062657600080fd5b81019080803573ffffffffffffffffffffffffffffffffffffffff169060200190929190505050611e6a565b604051808215151515815260200191505060405180910390f35b6106ae6004803603602081101561068257600080fd5b81019080803573ffffffffffffffffffffffffffffffffffffffff169060200190929190505050611ed4565b604051808973ffffffffffffffffffffffffffffffffffffffff1673ffffffffffffffffffffffffffffffffffffffff1681526020018060200180602001806020018060200180602001806020018815151515815260200187810387528e818151815260200191508051906020019080838360005b8381101561073e578082015181840152602081019050610723565b50505050905090810190601f16801561076b5780820380516001836020036101000a031916815260200191505b5087810386528d818151815260200191508051906020019080838360005b838110156107a4578082015181840152602081019050610789565b50505050905090810190601f1680156107d15780820380516001836020036101000a031916815260200191505b5087810385528c818151815260200191508051906020019080838360005b8381101561080a5780820151818401526020810190506107ef565b50505050905090810190601f1680156108375780820380516001836020036101000a031916815260200191505b5087810384528b818151815260200191508051906020019080838360005b83811015610870578082015181840152602081019050610855565b50505050905090810190601f16801561089d5780820380516001836020036101000a031916815260200191505b5087810383528a818151815260200191508051906020019080838360005b838110156108d65780820151818401526020810190506108bb565b50505050905090810190601f1680156109035780820380516001836020036101000a031916815260200191505b50878103825289818151815260200191508051906020019080838360005b8381101561093c578082015181840152602081019050610921565b50505050905090810190601f1680156109695780820380516001836020036101000a031916815260200191505b509e50505050505050505050505050505060405180910390f35b61098b6122d9565b6040518082815260200191505060405180910390f35b6109cd600480360360208110156109b757600080fd5b81019080803590602001909291905050506122e3565b6040518082815260200191505060405180910390f35b610daf600480360360e08110156109f957600080fd5b8101908080359060200190640100000000811115610a1657600080fd5b820183602082011115610a2857600080fd5b80359060200191846001830284011164010000000083111715610a4a57600080fd5b91908080601f016020809104026020016040519081016040528093929190818152602001838380828437600081840152601f19601f820116905080830192505050505050509192919290803573ffffffffffffffffffffffffffffffffffffffff16906020019092919080359060200190640100000000811115610acd57600080fd5b820183602082011115610adf57600080fd5b80359060200191846001830284011164010000000083111715610b0157600080fd5b91908080601f016020809104026020016040519081016040528093929190818152602001838380828437600081840152601f19601f82011690508083019250505050505050919291929080359060200190640100000000811115610b6457600080fd5b820183602082011115610b7657600080fd5b80359060200191846001830284011164010000000083111715610b9857600080fd5b91908080601f016020809104026020016040519081016040528093929190818152602001838380828437600081840152601f19601f82011690508083019250505050505050919291929080359060200190640100000000811115610bfb57600080fd5b820183602082011115610c0d57600080fd5b80359060200191846001830284011164010000000083111715610c2f57600080fd5b91908080601f016020809104026020016040519081016040528093929190818152602001838380828437600081840152601f19601f82011690508083019250505050505050919291929080359060200190640100000000811115610c9257600080fd5b820183602082011115610ca457600080fd5b80359060200191846001830284011164010000000083111715610cc657600080fd5b91908080601f016020809104026020016040519081016040528093929190818152602001838380828437600081840152601f19601f82011690508083019250505050505050919291929080359060200190640100000000811115610d2957600080fd5b820183602082011115610d3b57600080fd5b80359060200191846001830284011164010000000083111715610d5d57600080fd5b91908080601f016020809104026020016040519081016040528093929190818152602001838380828437600081840152601f19601f820116905080830192505050505050509192919290505050612302565b005b610ddd60048036036020811015610dc757600080fd5b81019080803590602001909291905050506124c7565b6040518080602001806020018060200180602001858103855289818151815260200191508051906020019080838360005b83811015610e29578082015181840152602081019050610e0e565b50505050905090810190601f168015610e565780820380516001836020036101000a031916815260200191505b50858103845288818151815260200191508051906020019080838360005b83811015610e8f578082015181840152602081019050610e74565b50505050905090810190601f168015610ebc5780820380516001836020036101000a031916815260200191505b50858103835287818151815260200191508051906020019080838360005b83811015610ef5578082015181840152602081019050610eda565b50505050905090810190601f168015610f225780820380516001836020036101000a031916815260200191505b50858103825286818151815260200191508051906020019080838360005b83811015610f5b578082015181840152602081019050610f40565b50505050905090810190601f168015610f885780820380516001836020036101000a031916815260200191505b509850505050505050505060405180910390f35b61105560048036036020811015610fb257600080fd5b8101908080359060200190640100000000811115610fcf57600080fd5b820183602082011115610fe157600080fd5b8035906020019184600183028401116401000000008311171561100357600080fd5b91908080601f016020809104026020016040519081016040528093929190818152602001838380828437600081840152601f19601f8201169050808301925050505050505091929192905050506127a0565b604051808215151515815260200191505060405180910390f35b6111df6004803603606081101561108557600080fd5b81019080803573ffffffffffffffffffffffffffffffffffffffff169060200190929190803590602001906401000000008111156110c257600080fd5b8201836020820111156110d457600080fd5b803590602001918460018302840111640100000000831117156110f657600080fd5b91908080601f016020809104026020016040519081016040528093929190818152602001838380828437600081840152601f19601f8201169050808301925050505050505091929192908035906020019064010000000081111561115957600080fd5b82018360208201111561116b57600080fd5b8035906020019184600183028401116401000000008311171561118d57600080fd5b91908080601f016020809104026020016040519081016040528093929190818152602001838380828437600081840152601f19601f820116905080830192505050505050509192919290505050612846565b6040518080602001806020018060200180602001858103855289818151815260200191508051906020019080838360005b8381101561122b578082015181840152602081019050611210565b50505050905090810190601f1680156112585780820380516001836020036101000a031916815260200191505b50858103845288818151815260200191508051906020019080838360005b83811015611291578082015181840152602081019050611276565b50505050905090810190601f1680156112be5780820380516001836020036101000a031916815260200191505b50858103835287818151815260200191508051906020019080838360005b838110156112f75780820151818401526020810190506112dc565b50505050905090810190601f1680156113245780820380516001836020036101000a031916815260200191505b50858103825286818151815260200191508051906020019080838360005b8381101561135d578082015181840152602081019050611342565b50505050905090810190601f16801561138a5780820380516001836020036101000a031916815260200191505b509850505050505050505060405180910390f35b611599600480360360a08110156113b457600080fd5b8101908080359060200190929190803590602001906401000000008111156113db57600080fd5b8201836020820111156113ed57600080fd5b8035906020019184600183028401116401000000008311171561140f57600080fd5b91908080601f016020809104026020016040519081016040528093929190818152602001838380828437600081840152601f19601f820116905080830192505050505050509192919290803590602001909291908035906020019064010000000081111561147c57600080fd5b82018360208201111561148e57600080fd5b803590602001918460018302840111640100000000831117156114b057600080fd5b91908080601f016020809104026020016040519081016040528093929190818152602001838380828437600081840152601f19601f8201169050808301925050505050505091929192908035906020019064010000000081111561151357600080fd5b82018360208201111561152557600080fd5b8035906020019184600183028401116401000000008311171561154757600080fd5b91908080601f016020809104026020016040519081016040528093929190818152602001838380828437600081840152601f19601f82011690508083019250505050505050919291929050505061309b565b6040518080602001828103825283818151815260200191508051906020019080838360005b838110156115d95780820151818401526020810190506115be565b50505050905090810190601f1680156116065780820380516001836020036101000a031916815260200191505b509250505060405180910390f35b61161c6134f0565b6040518082815260200191505060405180910390f35b61163a6134fa565b6040518082815260200191505060405180910390f35b6117096004803603602081101561166657600080fd5b810190808035906020019064010000000081111561168357600080fd5b82018360208201111561169557600080fd5b803590602001918460018302840111640100000000831117156116b757600080fd5b91908080601f016020809104026020016040519081016040528093929190818152602001838380828437600081840152601f19601f820116905080830192505050505050509192919290505050613500565b6040518082815260200191505060405180910390f35b61174b6004803603602081101561173557600080fd5b810190808035906020019092919050505061352e565b60405180888152602001806020018060200180602001806020018781526020018615151515815260200185810385528b818151815260200191508051906020019080838360005b838110156117ad578082015181840152602081019050611792565b50505050905090810190601f1680156117da5780820380516001836020036101000a031916815260200191505b5085810384528a818151815260200191508051906020019080838360005b838110156118135780820151818401526020810190506117f8565b50505050905090810190601f1680156118405780820380516001836020036101000a031916815260200191505b50858103835289818151815260200191508051906020019080838360005b8381101561187957808201518184015260208101905061185e565b50505050905090810190601f1680156118a65780820380516001836020036101000a031916815260200191505b50858103825288818151815260200191508051906020019080838360005b838110156118df5780820151818401526020810190506118c4565b50505050905090810190601f16801561190c5780820380516001836020036101000a031916815260200191505b509b50505050505050505050505060405180910390f35b60045481565b600060608060006119386137dd565b600080888152602001908152602001600020600701600087815260200190815260200160002060405180608001604052908160008201548152602001600182018054600181600116156101000203166002900480601f016020809104026020016040519081016040528092919081815260200182805460018160011615610100020316600290048015611a0c5780601f106119e157610100808354040283529160200191611a0c565b820191906000526020600020905b8154815290600101906020018083116119ef57829003601f168201915b50505050508152602001600282018054600181600116156101000203166002900480601f016020809104026020016040519081016040528092919081815260200182805460018160011615610100020316600290048015611aae5780601f10611a8357610100808354040283529160200191611aae565b820191906000526020600020905b815481529060010190602001808311611a9157829003601f168201915b505050505081526020016003820154815250509050806000015181602001518260400151836060015182925081915094509450945094505092959194509250565b60006002600081548092919060010191905055506002546001886040518082805190602001908083835b60208310611b3c5780518252602082019150602081019050602083039250611b19565b6001836020036101000a0380198251168184511680821785525050505050509050019150509081526020016040518091039020819055506040518060e00160405280600254815260200188815260200187815260200186815260200185815260200160008152602001600115158152506000806002548152602001908152602001600020600082015181600001556020820151816001019080519060200190611be6929190613805565b506040820151816002019080519060200190611c03929190613805565b506060820151816003019080519060200190611c20929190613805565b506080820151816004019080519060200190611c3d929190613805565b5060a0820151816005015560c08201518160060160006101000a81548160ff02191690831515021790555090505060008060025481526020019081526020016000206005016000815480929190600101919050555060405180608001604052804281526020018381526020018481526020016000815250600080600254815260200190815260200160002060070160008060006002548152602001908152602001600020600501548152602001908152602001600020600082015181600001556020820151816001019080519060200190611d19929190613805565b506040820151816002019080519060200190611d36929190613805565b50606082015181600301559050507f644bbbb3f89829fbb21807f317732bef533c7f1dc72733ff91b8a3abfe4c8fda60025484846000604051808581526020018060200180602001848152602001838103835286818151815260200191508051906020019080838360005b83811015611dbc578082015181840152602081019050611da1565b50505050905090810190601f168015611de95780820380516001836020036101000a031916815260200191505b50838103825285818151815260200191508051906020019080838360005b83811015611e22578082015181840152602081019050611e07565b50505050905090810190601f168015611e4f5780820380516001836020036101000a031916815260200191505b50965050505050505060405180910390a19695505050505050565b6000600360008373ffffffffffffffffffffffffffffffffffffffff1673ffffffffffffffffffffffffffffffffffffffff16815260200190815260200160002060070160009054906101000a900460ff1615611eca5760019050611ecf565b600090505b919050565b60036020528060005260406000206000915090508060000160009054906101000a900473ffffffffffffffffffffffffffffffffffffffff1690806001018054600181600116156101000203166002900480601f016020809104026020016040519081016040528092919081815260200182805460018160011615610100020316600290048015611fa65780601f10611f7b57610100808354040283529160200191611fa6565b820191906000526020600020905b815481529060010190602001808311611f8957829003601f168201915b505050505090806002018054600181600116156101000203166002900480601f0160208091040260200160405190810160405280929190818152602001828054600181600116156101000203166002900480156120445780601f1061201957610100808354040283529160200191612044565b820191906000526020600020905b81548152906001019060200180831161202757829003601f168201915b505050505090806003018054600181600116156101000203166002900480601f0160208091040260200160405190810160405280929190818152602001828054600181600116156101000203166002900480156120e25780601f106120b7576101008083540402835291602001916120e2565b820191906000526020600020905b8154815290600101906020018083116120c557829003601f168201915b505050505090806004018054600181600116156101000203166002900480601f0160208091040260200160405190810160405280929190818152602001828054600181600116156101000203166002900480156121805780601f1061215557610100808354040283529160200191612180565b820191906000526020600020905b81548152906001019060200180831161216357829003601f168201915b505050505090806005018054600181600116156101000203166002900480601f01602080910402602001604051908101604052809291908181526020018280546001816001161561010002031660029004801561221e5780601f106121f35761010080835404028352916020019161221e565b820191906000526020600020905b81548152906001019060200180831161220157829003601f168201915b505050505090806006018054600181600116156101000203166002900480601f0160208091040260200160405190810160405280929190818152602001828054600181600116156101000203166002900480156122bc5780601f10612291576101008083540402835291602001916122bc565b820191906000526020600020905b81548152906001019060200180831161229f57829003601f168201915b5050505050908060070160009054906101000a900460ff16905088565b6000600254905090565b6000806000838152602001908152602001600020600501549050919050565b6004600081548092919060010191905055506040518061010001604052808773ffffffffffffffffffffffffffffffffffffffff16815260200186815260200185815260200188815260200184815260200183815260200182815260200160011515815250600360008873ffffffffffffffffffffffffffffffffffffffff1673ffffffffffffffffffffffffffffffffffffffff16815260200190815260200160002060008201518160000160006101000a81548173ffffffffffffffffffffffffffffffffffffffff021916908373ffffffffffffffffffffffffffffffffffffffff1602179055506020820151816001019080519060200190612409929190613805565b506040820151816002019080519060200190612426929190613805565b506060820151816003019080519060200190612443929190613805565b506080820151816004019080519060200190612460929190613805565b5060a082015181600501908051906020019061247d929190613805565b5060c082015181600601908051906020019061249a929190613805565b5060e08201518160070160006101000a81548160ff02191690831515021790555090505050505050505050565b606080606080600080868152602001908152602001600020600101600080878152602001908152602001600020600201600080888152602001908152602001600020600301600080898152602001908152602001600020600401838054600181600116156101000203166002900480601f0160208091040260200160405190810160405280929190818152602001828054600181600116156101000203166002900480156125b65780601f1061258b576101008083540402835291602001916125b6565b820191906000526020600020905b81548152906001019060200180831161259957829003601f168201915b50505050509350828054600181600116156101000203166002900480601f0160208091040260200160405190810160405280929190818152602001828054600181600116156101000203166002900480156126525780601f1061262757610100808354040283529160200191612652565b820191906000526020600020905b81548152906001019060200180831161263557829003601f168201915b50505050509250818054600181600116156101000203166002900480601f0160208091040260200160405190810160405280929190818152602001828054600181600116156101000203166002900480156126ee5780601f106126c3576101008083540402835291602001916126ee565b820191906000526020600020905b8154815290600101906020018083116126d157829003601f168201915b50505050509150808054600181600116156101000203166002900480601f01602080910402602001604051908101604052809291908181526020018280546001816001161561010002031660029004801561278a5780601f1061275f5761010080835404028352916020019161278a565b820191906000526020600020905b81548152906001019060200180831161276d57829003601f168201915b5050505050905093509350935093509193509193565b60008060006001846040518082805190602001908083835b602083106127db57805182526020820191506020810190506020830392506127b8565b6001836020036101000a038019825116818451168082178552505050505050905001915050908152602001604051809103902054815260200190815260200160002060060160009054906101000a900460ff161561283c5760019050612841565b600090505b919050565b6060806060806002866040516020018082805190602001908083835b602083106128855780518252602082019150602081019050602083039250612862565b6001836020036101000a0380198251168184511680821785525050505050509050019150506040516020818303038152906040526040518082805190602001908083835b602083106128ec57805182526020820191506020810190506020830392506128c9565b6001836020036101000a038019825116818451168082178552505050505050905001915050602060405180830381855afa15801561292e573d6000803e3d6000fd5b5050506040513d602081101561294357600080fd5b81019080805190602001909291905050506002600360008a73ffffffffffffffffffffffffffffffffffffffff1673ffffffffffffffffffffffffffffffffffffffff16815260200190815260200160002060010160405160200180828054600181600116156101000203166002900480156129f65780601f106129d45761010080835404028352918201916129f6565b820191906000526020600020905b8154815290600101906020018083116129e2575b50509150506040516020818303038152906040526040518082805190602001908083835b60208310612a3d5780518252602082019150602081019050602083039250612a1a565b6001836020036101000a038019825116818451168082178552505050505050905001915050602060405180830381855afa158015612a7f573d6000803e3d6000fd5b5050506040513d6020811015612a9457600080fd5b810190808051906020019092919050505014612aaf57600080fd5b6002856040516020018082805190602001908083835b60208310612ae85780518252602082019150602081019050602083039250612ac5565b6001836020036101000a0380198251168184511680821785525050505050509050019150506040516020818303038152906040526040518082805190602001908083835b60208310612b4f5780518252602082019150602081019050602083039250612b2c565b6001836020036101000a038019825116818451168082178552505050505050905001915050602060405180830381855afa158015612b91573d6000803e3d6000fd5b5050506040513d6020811015612ba657600080fd5b81019080805190602001909291905050506002600360008a73ffffffffffffffffffffffffffffffffffffffff1673ffffffffffffffffffffffffffffffffffffffff1681526020019081526020016000206002016040516020018082805460018160011615610100020316600290048015612c595780601f10612c37576101008083540402835291820191612c59565b820191906000526020600020905b815481529060010190602001808311612c45575b50509150506040516020818303038152906040526040518082805190602001908083835b60208310612ca05780518252602082019150602081019050602083039250612c7d565b6001836020036101000a038019825116818451168082178552505050505050905001915050602060405180830381855afa158015612ce2573d6000803e3d6000fd5b5050506040513d6020811015612cf757600080fd5b810190808051906020019092919050505014612d1257600080fd5b600360008873ffffffffffffffffffffffffffffffffffffffff1673ffffffffffffffffffffffffffffffffffffffff168152602001908152602001600020600301600360008973ffffffffffffffffffffffffffffffffffffffff1673ffffffffffffffffffffffffffffffffffffffff168152602001908152602001600020600601600360008a73ffffffffffffffffffffffffffffffffffffffff1673ffffffffffffffffffffffffffffffffffffffff168152602001908152602001600020600401600360008b73ffffffffffffffffffffffffffffffffffffffff1673ffffffffffffffffffffffffffffffffffffffff168152602001908152602001600020600501838054600181600116156101000203166002900480601f016020809104026020016040519081016040528092919081815260200182805460018160011615610100020316600290048015612eaf5780601f10612e8457610100808354040283529160200191612eaf565b820191906000526020600020905b815481529060010190602001808311612e9257829003601f168201915b50505050509350828054600181600116156101000203166002900480601f016020809104026020016040519081016040528092919081815260200182805460018160011615610100020316600290048015612f4b5780601f10612f2057610100808354040283529160200191612f4b565b820191906000526020600020905b815481529060010190602001808311612f2e57829003601f168201915b50505050509250818054600181600116156101000203166002900480601f016020809104026020016040519081016040528092919081815260200182805460018160011615610100020316600290048015612fe75780601f10612fbc57610100808354040283529160200191612fe7565b820191906000526020600020905b815481529060010190602001808311612fca57829003601f168201915b50505050509150808054600181600116156101000203166002900480601f0160208091040260200160405190810160405280929190818152602001828054600181600116156101000203166002900480156130835780601f1061305857610100808354040283529160200191613083565b820191906000526020600020905b81548152906001019060200180831161306657829003601f168201915b50505050509050935093509350935093509350935093565b60606002856040516020018082805190602001908083835b602083106130d657805182526020820191506020810190506020830392506130b3565b6001836020036101000a0380198251168184511680821785525050505050509050019150506040516020818303038152906040526040518082805190602001908083835b6020831061313d578051825260208201915060208101905060208303925061311a565b6001836020036101000a038019825116818451168082178552505050505050905001915050602060405180830381855afa15801561317f573d6000803e3d6000fd5b5050506040513d602081101561319457600080fd5b8101908080519060200190929190505050600260008089815260200190815260200160002060070160008060008b815260200190815260200160002060050154815260200190815260200160002060020160405160200180828054600181600116156101000203166002900480156132435780601f10613221576101008083540402835291820191613243565b820191906000526020600020905b81548152906001019060200180831161322f575b50509150506040516020818303038152906040526040518082805190602001908083835b6020831061328a5780518252602082019150602081019050602083039250613267565b6001836020036101000a038019825116818451168082178552505050505050905001915050602060405180830381855afa1580156132cc573d6000803e3d6000fd5b5050506040513d60208110156132e157600080fd5b8101908080519060200190929190505050146132fc57600080fd5b6000808781526020019081526020016000206005016000815480929190600101919050555060405180608001604052804281526020018481526020018381526020018581525060008088815260200190815260200160002060070160008060008a81526020019081526020016000206005015481526020019081526020016000206000820151816000015560208201518160010190805190602001906133a3929190613805565b5060408201518160020190805190602001906133c0929190613805565b50606082015181600301559050507f5d821b8b6ce18465607d9c51957a48484030b98fc16bf4b5a700a595f2b2bd6f86838686604051808581526020018060200184815260200180602001838103835286818151815260200191508051906020019080838360005b83811015613443578082015181840152602081019050613428565b50505050905090810190601f1680156134705780820380516001836020036101000a031916815260200191505b50838103825284818151815260200191508051906020019080838360005b838110156134a957808201518184015260208101905061348e565b50505050905090810190601f1680156134d65780820380516001836020036101000a031916815260200191505b50965050505050505060405180910390a195945050505050565b6000600454905090565b60025481565b6001818051602081018201805184825260208301602085012081835280955050505050506000915090505481565b6000602052806000526040600020600091509050806000015490806001018054600181600116156101000203166002900480601f0160208091040260200160405190810160405280929190818152602001828054600181600116156101000203166002900480156135e05780601f106135b5576101008083540402835291602001916135e0565b820191906000526020600020905b8154815290600101906020018083116135c357829003601f168201915b505050505090806002018054600181600116156101000203166002900480601f01602080910402602001604051908101604052809291908181526020018280546001816001161561010002031660029004801561367e5780601f106136535761010080835404028352916020019161367e565b820191906000526020600020905b81548152906001019060200180831161366157829003601f168201915b505050505090806003018054600181600116156101000203166002900480601f01602080910402602001604051908101604052809291908181526020018280546001816001161561010002031660029004801561371c5780601f106136f15761010080835404028352916020019161371c565b820191906000526020600020905b8154815290600101906020018083116136ff57829003601f168201915b505050505090806004018054600181600116156101000203166002900480601f0160208091040260200160405190810160405280929190818152602001828054600181600116156101000203166002900480156137ba5780601f1061378f576101008083540402835291602001916137ba565b820191906000526020600020905b81548152906001019060200180831161379d57829003601f168201915b5050505050908060050154908060060160009054906101000a900460ff16905087565b6040518060800160405280600081526020016060815260200160608152602001600081525090565b828054600181600116156101000203166002900490600052602060002090601f016020900481019282601f1061384657805160ff1916838001178555613874565b82800160010185558215613874579182015b82811115613873578251825591602001919060010190613858565b5b5090506138819190613885565b5090565b6138a791905b808211156138a357600081600090555060010161388b565b5090565b9056fea265627a7a723158204b07f43fd81c8e3bbe9b3e834db44225914aff31ca82baf7d12d18e69d1aaeee64736f6c63430005100032",
  "source": "// SPDX-License-Identifier: MIT\r\npragma solidity >=0.4.22 <0.9.0;\r\n\r\nlibrary BloodUnitLibrary {\r\n  struct BloodStatus {\r\n    uint256 time; //status time\r\n    string cur_add; // address of current owner\r\n    string owner; // current owner name\r\n    uint256 verified; // 0 for not checked 1 for safe 2 for unsafe\r\n  }\r\n  struct BloodUnit {\r\n    uint256 id; // to fetch in map\r\n    string uniqueid;\r\n    string aadhar;\r\n    string blood_group;\r\n    string expiry_date;\r\n    uint256 statusCount; // keep track of no of status changes\r\n    bool exists;\r\n    mapping(uint256 => BloodStatus) bloodStatus;\r\n  }\r\n\r\n  struct User {\r\n    address payable user_address;\r\n    string email;\r\n    string password;\r\n    string name;\r\n    string addressUser;\r\n    string coords; // coordinates from address\r\n    string typeID;\r\n    bool exists;\r\n  }\r\n}\r\n\r\ncontract BloodUnitTracker {\r\n  mapping(uint256 => BloodUnitLibrary.BloodUnit) public BloodStore;\r\n  mapping(string => uint256) public idToBloodId;\r\n  // to store the no of available bloods\r\n  // its public so that we can modify from js\r\n  uint256 public bloodCount = 0;\r\n\r\n  // event to store bloodUnit Creation on Chain\r\n  event BloodUnitCreate(\r\n    uint256 id,\r\n    string curr_owner,\r\n    string curr_owner_add,\r\n    uint256 verified\r\n  );\r\n\r\n  // event to store blood transfer from Blood Bank to Hospital on Chain\r\n  event BloodTransfer(\r\n    uint256 id,\r\n    string newOwner,\r\n    uint256 verified,\r\n    string status\r\n  );\r\n\r\n  // BloodUnit Methods\r\n\r\n  function addBloodUnit(\r\n    string memory _uniqueid,\r\n    string memory _aadhar,\r\n    string memory _blood_group,\r\n    string memory _expiry_date,\r\n    string memory _cur_owner,\r\n    string memory _cur_owner_address // ccordinates\r\n  ) public returns (uint256) {\r\n    bloodCount++;\r\n    idToBloodId[_uniqueid] = bloodCount;\r\n    BloodStore[bloodCount] = BloodUnitLibrary.BloodUnit(\r\n      bloodCount,\r\n      _uniqueid,\r\n      _aadhar,\r\n      _blood_group,\r\n      _expiry_date,\r\n      0,\r\n      true\r\n    );\r\n    BloodStore[bloodCount].statusCount++;\r\n    BloodStore[bloodCount].bloodStatus[\r\n      BloodStore[bloodCount].statusCount\r\n    ] = BloodUnitLibrary.BloodStatus(\r\n      block.timestamp,\r\n      _cur_owner_address,\r\n      _cur_owner,\r\n      0\r\n    );\r\n    // save transaction on Chain\r\n    emit BloodUnitCreate(bloodCount, _cur_owner, _cur_owner_address, 0);\r\n  }\r\n\r\n  function bloodExist(string memory _id) public view returns (bool) {\r\n    if (BloodStore[idToBloodId[_id]].exists) return true;\r\n    return false;\r\n  }\r\n\r\n  // give detail about the donor and sample\r\n  function getBloodData(\r\n    uint256 _id\r\n  )\r\n    public\r\n    view\r\n    returns (string memory, string memory, string memory, string memory)\r\n  {\r\n    return (\r\n      BloodStore[_id].uniqueid,\r\n      BloodStore[_id].aadhar,\r\n      BloodStore[_id].blood_group,\r\n      BloodStore[_id].expiry_date\r\n    );\r\n  }\r\n\r\n  //give verification status and no of changes done on this smaple\r\n  function getBloodStatusCount(uint256 _id) public view returns (uint256) {\r\n    return (BloodStore[_id].statusCount);\r\n  }\r\n\r\n  function transferAsset(\r\n    uint256 _id,\r\n    string memory _oldUser,\r\n    uint256 verified,\r\n    string memory _status,\r\n    string memory _newUser\r\n  ) public returns (string memory) {\r\n    require(\r\n      sha256(\r\n        abi.encodePacked(\r\n          (BloodStore[_id].bloodStatus[BloodStore[_id].statusCount].owner)\r\n        )\r\n      ) == sha256(abi.encodePacked((_oldUser)))\r\n    );\r\n    BloodStore[_id].statusCount++;\r\n    BloodStore[_id].bloodStatus[BloodStore[_id].statusCount] = BloodUnitLibrary\r\n      .BloodStatus(block.timestamp, _status, _newUser, verified);\r\n\r\n    // save tranfer transaction on Chain\r\n    emit BloodTransfer(_id, _newUser, verified, _status);\r\n  }\r\n\r\n  // get total avl bloods\r\n  function getBloodCount() public view returns (uint256) {\r\n    return bloodCount;\r\n  }\r\n\r\n  // Status Methods\r\n\r\n  function getBloodStatus(\r\n    uint256 _id,\r\n    uint256 _status_count\r\n  ) public view returns (uint256, string memory, string memory, uint256) {\r\n    // finding status of Blood of given id and status count\r\n    BloodUnitLibrary.BloodStatus memory tempStatus = BloodStore[_id]\r\n      .bloodStatus[_status_count];\r\n    return (\r\n      tempStatus.time,\r\n      tempStatus.cur_add,\r\n      tempStatus.owner,\r\n      tempStatus.verified\r\n    );\r\n  }\r\n\r\n  // User Methods\r\n\r\n  mapping(address => BloodUnitLibrary.User) public UserStore;\r\n\r\n  uint256 public userCount = 0;\r\n\r\n  function getIdentity(\r\n    address payable user_address\r\n  ) public view returns (bool) {\r\n    if (UserStore[user_address].exists) return true;\r\n    return false;\r\n  }\r\n\r\n  function addIdentity(\r\n    string memory _name,\r\n    address payable user_address,\r\n    string memory _email,\r\n    string memory _password,\r\n    string memory _address,\r\n    string memory _coords,\r\n    string memory _typeID\r\n  ) public {\r\n    userCount++;\r\n    UserStore[user_address] = BloodUnitLibrary.User(\r\n      user_address,\r\n      _email,\r\n      _password,\r\n      _name,\r\n      _address,\r\n      _coords,\r\n      _typeID,\r\n      true\r\n    );\r\n  }\r\n\r\n  function getUser(\r\n    address payable _user_add,\r\n    string memory _email,\r\n    string memory _password\r\n  )\r\n    public\r\n    view\r\n    returns (string memory, string memory, string memory, string memory)\r\n  {\r\n    require(\r\n      sha256(abi.encodePacked((UserStore[_user_add].email))) ==\r\n        sha256(abi.encodePacked((_email)))\r\n    );\r\n    require(\r\n      sha256(abi.encodePacked((UserStore[_user_add].password))) ==\r\n        sha256(abi.encodePacked((_password)))\r\n    );\r\n    return (\r\n      UserStore[_user_add].name,\r\n      UserStore[_user_add].typeID,\r\n      UserStore[_user_add].addressUser,\r\n      UserStore[_user_add].coords\r\n    );\r\n  }\r\n\r\n  function getUserCount() public view returns (uint256) {\r\n    return userCount;\r\n  }\r\n}\r\n",
  "sourcePath": "C:\\Users\\bhara\\Desktop\\rakt-daan\\src\\contracts\\BloodUnitTracker.sol",
  "compiler": {
    "name": "solc",
    "version": "0.5.16+commit.9c3226ce.Emscripten.clang"
  },
  "schemaVersion": "3.4.11",
  "updatedAt": "2023-02-05T08:59:38.730Z",
  "networkType": "ethereum",
  "devdoc": {
    "methods": {}
  },
  "userdoc": {
    "methods": {}
  }
}